{
  "_format": "hh-sol-artifact-1",
  "contractName": "CollectionFactory",
  "sourceName": "contracts/NFTCollectionFactory.sol",
  "abi": [
    {
      "inputs": [
        {
          "internalType": "uint256",
          "name": "price_",
          "type": "uint256"
        }
      ],
      "stateMutability": "nonpayable",
      "type": "constructor"
    },
    {
      "anonymous": false,
      "inputs": [
        {
          "indexed": true,
          "internalType": "address",
          "name": "creator",
          "type": "address"
        },
        {
          "indexed": true,
          "internalType": "address",
          "name": "contractAddress",
          "type": "address"
        },
        {
          "indexed": true,
          "internalType": "string",
          "name": "metaData",
          "type": "string"
        }
      ],
      "name": "CollectionCreated",
      "type": "event"
    },
    {
      "anonymous": false,
      "inputs": [
        {
          "indexed": true,
          "internalType": "address",
          "name": "previousOwner",
          "type": "address"
        },
        {
          "indexed": true,
          "internalType": "address",
          "name": "newOwner",
          "type": "address"
        }
      ],
      "name": "OwnershipTransferred",
      "type": "event"
    },
    {
      "inputs": [
        {
          "internalType": "string",
          "name": "name_",
          "type": "string"
        },
        {
          "internalType": "string",
          "name": "symbol_",
          "type": "string"
        },
        {
          "internalType": "string",
          "name": "metaData",
          "type": "string"
        }
      ],
      "name": "createCollection",
      "outputs": [],
      "stateMutability": "payable",
      "type": "function"
    },
    {
      "inputs": [
        {
          "internalType": "address",
          "name": "contractAddress",
          "type": "address"
        },
        {
          "internalType": "string",
          "name": "newHash",
          "type": "string"
        }
      ],
      "name": "editMetaData",
      "outputs": [],
      "stateMutability": "nonpayable",
      "type": "function"
    },
    {
      "inputs": [
        {
          "internalType": "uint256",
          "name": "startIndex",
          "type": "uint256"
        },
        {
          "internalType": "uint256",
          "name": "endIndex",
          "type": "uint256"
        }
      ],
      "name": "getCollectionsPaginated",
      "outputs": [
        {
          "components": [
            {
              "internalType": "address",
              "name": "contractAddress",
              "type": "address"
            },
            {
              "internalType": "string",
              "name": "metaDataHash",
              "type": "string"
            },
            {
              "internalType": "address",
              "name": "creator",
              "type": "address"
            }
          ],
          "internalType": "struct CollectionFactory.collectionInfo[]",
          "name": "",
          "type": "tuple[]"
        },
        {
          "internalType": "bool",
          "name": "",
          "type": "bool"
        }
      ],
      "stateMutability": "view",
      "type": "function"
    },
    {
      "inputs": [],
      "name": "getPrice",
      "outputs": [
        {
          "internalType": "uint256",
          "name": "",
          "type": "uint256"
        }
      ],
      "stateMutability": "view",
      "type": "function"
    },
    {
      "inputs": [],
      "name": "getUserCollections",
      "outputs": [
        {
          "components": [
            {
              "internalType": "address",
              "name": "contractAddress",
              "type": "address"
            },
            {
              "internalType": "string",
              "name": "metaDataHash",
              "type": "string"
            },
            {
              "internalType": "address",
              "name": "creator",
              "type": "address"
            }
          ],
          "internalType": "struct CollectionFactory.collectionInfo[]",
          "name": "",
          "type": "tuple[]"
        }
      ],
      "stateMutability": "view",
      "type": "function"
    },
    {
      "inputs": [],
      "name": "owner",
      "outputs": [
        {
          "internalType": "address",
          "name": "",
          "type": "address"
        }
      ],
      "stateMutability": "view",
      "type": "function"
    },
    {
      "inputs": [],
      "name": "renounceOwnership",
      "outputs": [],
      "stateMutability": "nonpayable",
      "type": "function"
    },
    {
      "inputs": [],
      "name": "retrieveBalance",
      "outputs": [],
      "stateMutability": "nonpayable",
      "type": "function"
    },
    {
      "inputs": [
        {
          "internalType": "uint256",
          "name": "newPrice_",
          "type": "uint256"
        }
      ],
      "name": "setPrice",
      "outputs": [],
      "stateMutability": "nonpayable",
      "type": "function"
    },
    {
      "inputs": [],
      "name": "totalCollections",
      "outputs": [
        {
          "internalType": "uint256",
          "name": "",
          "type": "uint256"
        }
      ],
      "stateMutability": "view",
      "type": "function"
    },
    {
      "inputs": [
        {
          "internalType": "address",
          "name": "newOwner",
          "type": "address"
        }
      ],
      "name": "transferOwnership",
      "outputs": [],
      "stateMutability": "nonpayable",
      "type": "function"
    }
  ],
  "bytecode": "0x60806040523480156200001157600080fd5b506040516200636338038062006363833981810160405281019062000037919062000148565b620000576200004b6200006560201b60201c565b6200006d60201b60201c565b806002819055505062000198565b600033905090565b60008060009054906101000a900473ffffffffffffffffffffffffffffffffffffffff169050816000806101000a81548173ffffffffffffffffffffffffffffffffffffffff021916908373ffffffffffffffffffffffffffffffffffffffff1602179055508173ffffffffffffffffffffffffffffffffffffffff168173ffffffffffffffffffffffffffffffffffffffff167f8be0079c531659141344cd1fd0a4f28419497f9722a3daafe3b4186f6b6457e060405160405180910390a35050565b60008151905062000142816200017e565b92915050565b6000602082840312156200015b57600080fd5b60006200016b8482850162000131565b91505092915050565b6000819050919050565b620001898162000174565b81146200019557600080fd5b50565b6161bb80620001a86000396000f3fe608060405260043610620000aa5760003560e01c806398d5fdca116200006d57806398d5fdca146200019c578063a49dac5414620001cc578063d79bd49914620001fc578063ece86c211462000216578063f2fde38b1462000236578063fa6cabee146200026457620000aa565b80635df44c9214620000af57806361d9db2d14620000f4578063715018a614620001245780638da5cb5b146200013e57806391b7f5ed146200016e575b600080fd5b348015620000bc57600080fd5b50620000db6004803603810190620000d5919062001521565b62000292565b604051620000eb92919062001876565b60405180910390f35b3480156200010157600080fd5b506200010c62000594565b6040516200011b9190620019c5565b60405180910390f35b3480156200013157600080fd5b506200013c620005a7565b005b3480156200014b57600080fd5b506200015662000638565b60405162000165919062001835565b60405180910390f35b3480156200017b57600080fd5b506200019a6004803603810190620001949190620014f5565b62000661565b005b348015620001a957600080fd5b50620001b4620006ee565b604051620001c39190620019c5565b60405180910390f35b348015620001d957600080fd5b50620001e4620006f8565b604051620001f3919062001852565b60405180910390f35b3480156200020957600080fd5b506200021462000a1a565b005b6200023460048036038101906200022e919062001447565b62000af0565b005b3480156200024357600080fd5b506200026260048036038101906200025c9190620013bd565b62000e25565b005b3480156200027157600080fd5b506200029060048036038101906200028a9190620013e9565b62000f29565b005b6060600083831015620002dc576040517f08c379a0000000000000000000000000000000000000000000000000000000008152600401620002d39062001981565b60405180910390fd5b600060018585620002ee919062001ab0565b620002fa919062001a53565b905060008167ffffffffffffffff8111156200033f577f4e487b7100000000000000000000000000000000000000000000000000000000600052604160045260246000fd5b6040519080825280602002602001820160405280156200037c57816020015b62000368620011a6565b8152602001906001900390816200035e5790505b5090506000808790505b8681116200055d57600560008281526020019081526020016000206040518060600160405290816000820160009054906101000a900473ffffffffffffffffffffffffffffffffffffffff1673ffffffffffffffffffffffffffffffffffffffff1673ffffffffffffffffffffffffffffffffffffffff168152602001600182018054620004149062001b7a565b80601f0160208091040260200160405190810160405280929190818152602001828054620004429062001b7a565b8015620004935780601f10620004675761010080835404028352916020019162000493565b820191906000526020600020905b8154815290600101906020018083116200047557829003601f168201915b505050505081526020016002820160009054906101000a900473ffffffffffffffffffffffffffffffffffffffff1673ffffffffffffffffffffffffffffffffffffffff1673ffffffffffffffffffffffffffffffffffffffff16815250508383815181106200052c577f4e487b7100000000000000000000000000000000000000000000000000000000600052603260045260246000fd5b60200260200101819052508180620005449062001bb0565b9250508080620005549062001bb0565b91505062000386565b506200056a6001620010b6565b8610156200058257816000945094505050506200058d565b816001945094505050505b9250929050565b6000620005a26001620010b6565b905090565b620005b1620010c4565b73ffffffffffffffffffffffffffffffffffffffff16620005d162000638565b73ffffffffffffffffffffffffffffffffffffffff16146200062a576040517f08c379a000000000000000000000000000000000000000000000000000000000815260040162000621906200195f565b60405180910390fd5b620006366000620010cc565b565b60008060009054906101000a900473ffffffffffffffffffffffffffffffffffffffff16905090565b6200066b620010c4565b73ffffffffffffffffffffffffffffffffffffffff166200068b62000638565b73ffffffffffffffffffffffffffffffffffffffff1614620006e4576040517f08c379a0000000000000000000000000000000000000000000000000000000008152600401620006db906200195f565b60405180910390fd5b8060028190555050565b6000600254905090565b60606000600360003373ffffffffffffffffffffffffffffffffffffffff1673ffffffffffffffffffffffffffffffffffffffff16815260200190815260200160002080549050905060008167ffffffffffffffff81111562000784577f4e487b7100000000000000000000000000000000000000000000000000000000600052604160045260246000fd5b604051908082528060200260200182016040528015620007c157816020015b620007ad620011a6565b815260200190600190039081620007a35790505b50905060005b8281101562000a115760056000600360003373ffffffffffffffffffffffffffffffffffffffff1673ffffffffffffffffffffffffffffffffffffffff16815260200190815260200160002083815481106200084c577f4e487b7100000000000000000000000000000000000000000000000000000000600052603260045260246000fd5b906000526020600020015481526020019081526020016000206040518060600160405290816000820160009054906101000a900473ffffffffffffffffffffffffffffffffffffffff1673ffffffffffffffffffffffffffffffffffffffff1673ffffffffffffffffffffffffffffffffffffffff168152602001600182018054620008d89062001b7a565b80601f0160208091040260200160405190810160405280929190818152602001828054620009069062001b7a565b8015620009575780601f106200092b5761010080835404028352916020019162000957565b820191906000526020600020905b8154815290600101906020018083116200093957829003601f168201915b505050505081526020016002820160009054906101000a900473ffffffffffffffffffffffffffffffffffffffff1673ffffffffffffffffffffffffffffffffffffffff1673ffffffffffffffffffffffffffffffffffffffff1681525050828281518110620009f0577f4e487b7100000000000000000000000000000000000000000000000000000000600052603260045260246000fd5b6020026020010181905250808062000a089062001bb0565b915050620007c7565b50809250505090565b62000a24620010c4565b73ffffffffffffffffffffffffffffffffffffffff1662000a4462000638565b73ffffffffffffffffffffffffffffffffffffffff161462000a9d576040517f08c379a000000000000000000000000000000000000000000000000000000000815260040162000a94906200195f565b60405180910390fd5b62000aa762000638565b73ffffffffffffffffffffffffffffffffffffffff166108fc479081150290604051600060405180830381858888f1935050505015801562000aed573d6000803e3d6000fd5b50565b60025434101562000b38576040517f08c379a000000000000000000000000000000000000000000000000000000000815260040162000b2f90620019a3565b60405180910390fd5b62000b44600162001190565b6000868686863360405162000b5990620011f3565b62000b69959493929190620018aa565b604051809103906000f08015801562000b86573d6000803e3d6000fd5b509050600060405180606001604052808373ffffffffffffffffffffffffffffffffffffffff16815260200185858080601f016020809104026020016040519081016040528093929190818152602001838380828437600081840152601f19601f8201169050808301925050505050505081526020013373ffffffffffffffffffffffffffffffffffffffff168152509050600360003373ffffffffffffffffffffffffffffffffffffffff1673ffffffffffffffffffffffffffffffffffffffff16815260200190815260200160002062000c636001620010b6565b9080600181540180825580915050600190039060005260206000200160009091909190915055806005600062000c9a6001620010b6565b815260200190815260200160002060008201518160000160006101000a81548173ffffffffffffffffffffffffffffffffffffffff021916908373ffffffffffffffffffffffffffffffffffffffff160217905550602082015181600101908051906020019062000d0d92919062001201565b5060408201518160020160006101000a81548173ffffffffffffffffffffffffffffffffffffffff021916908373ffffffffffffffffffffffffffffffffffffffff16021790555090505062000d646001620010b6565b600460008473ffffffffffffffffffffffffffffffffffffffff1673ffffffffffffffffffffffffffffffffffffffff16815260200190815260200160002081905550838360405162000db99291906200181a565b60405180910390208273ffffffffffffffffffffffffffffffffffffffff163373ffffffffffffffffffffffffffffffffffffffff167fa9a63cb75fdf6f638d49c249df7d5b94dd8bb8ac664ca12da7339862b9dd87ae60405160405180910390a45050505050505050565b62000e2f620010c4565b73ffffffffffffffffffffffffffffffffffffffff1662000e4f62000638565b73ffffffffffffffffffffffffffffffffffffffff161462000ea8576040517f08c379a000000000000000000000000000000000000000000000000000000000815260040162000e9f906200195f565b60405180910390fd5b600073ffffffffffffffffffffffffffffffffffffffff168173ffffffffffffffffffffffffffffffffffffffff16141562000f1b576040517f08c379a000000000000000000000000000000000000000000000000000000000815260040162000f1290620018f9565b60405180910390fd5b62000f2681620010cc565b50565b6000600460008573ffffffffffffffffffffffffffffffffffffffff1673ffffffffffffffffffffffffffffffffffffffff16815260200190815260200160002054141562000faf576040517f08c379a000000000000000000000000000000000000000000000000000000000815260040162000fa6906200193d565b60405180910390fd5b600060056000600460008773ffffffffffffffffffffffffffffffffffffffff1673ffffffffffffffffffffffffffffffffffffffff16815260200190815260200160002054815260200190815260200160002090503373ffffffffffffffffffffffffffffffffffffffff168160020160009054906101000a900473ffffffffffffffffffffffffffffffffffffffff1673ffffffffffffffffffffffffffffffffffffffff16146200109a576040517f08c379a000000000000000000000000000000000000000000000000000000000815260040162001091906200191b565b60405180910390fd5b8282826001019190620010af92919062001292565b5050505050565b600081600001549050919050565b600033905090565b60008060009054906101000a900473ffffffffffffffffffffffffffffffffffffffff169050816000806101000a81548173ffffffffffffffffffffffffffffffffffffffff021916908373ffffffffffffffffffffffffffffffffffffffff1602179055508173ffffffffffffffffffffffffffffffffffffffff168173ffffffffffffffffffffffffffffffffffffffff167f8be0079c531659141344cd1fd0a4f28419497f9722a3daafe3b4186f6b6457e060405160405180910390a35050565b6001816000016000828254019250508190555050565b6040518060600160405280600073ffffffffffffffffffffffffffffffffffffffff16815260200160608152602001600073ffffffffffffffffffffffffffffffffffffffff1681525090565b6143568062001e3083390190565b8280546200120f9062001b7a565b90600052602060002090601f0160209004810192826200123357600085556200127f565b82601f106200124e57805160ff19168380011785556200127f565b828001600101855582156200127f579182015b828111156200127e57825182559160200191906001019062001261565b5b5090506200128e919062001323565b5090565b828054620012a09062001b7a565b90600052602060002090601f016020900481019282620012c4576000855562001310565b82601f10620012df57803560ff191683800117855562001310565b8280016001018555821562001310579182015b828111156200130f578235825591602001919060010190620012f2565b5b5090506200131f919062001323565b5090565b5b808211156200133e57600081600090555060010162001324565b5090565b600081359050620013538162001dfb565b92915050565b60008083601f8401126200136c57600080fd5b8235905067ffffffffffffffff8111156200138657600080fd5b6020830191508360018202830111156200139f57600080fd5b9250929050565b600081359050620013b78162001e15565b92915050565b600060208284031215620013d057600080fd5b6000620013e08482850162001342565b91505092915050565b600080600060408486031215620013ff57600080fd5b60006200140f8682870162001342565b935050602084013567ffffffffffffffff8111156200142d57600080fd5b6200143b8682870162001359565b92509250509250925092565b600080600080600080606087890312156200146157600080fd5b600087013567ffffffffffffffff8111156200147c57600080fd5b6200148a89828a0162001359565b9650965050602087013567ffffffffffffffff811115620014aa57600080fd5b620014b889828a0162001359565b9450945050604087013567ffffffffffffffff811115620014d857600080fd5b620014e689828a0162001359565b92509250509295509295509295565b6000602082840312156200150857600080fd5b60006200151884828501620013a6565b91505092915050565b600080604083850312156200153557600080fd5b60006200154585828601620013a6565b92505060206200155885828601620013a6565b9150509250929050565b6000620015708383620017b3565b905092915050565b620015838162001aeb565b82525050565b620015948162001aeb565b82525050565b6000620015a782620019f2565b620015b3818562001a15565b935083602082028501620015c785620019e2565b8060005b85811015620016095784840389528151620015e7858262001562565b9450620015f48362001a08565b925060208a01995050600181019050620015cb565b50829750879550505050505092915050565b620016268162001aff565b82525050565b60006200163a838562001a37565b93506200164983858462001b35565b620016548362001c5c565b840190509392505050565b60006200166d838562001a48565b93506200167c83858462001b35565b82840190509392505050565b60006200169582620019fd565b620016a1818562001a26565b9350620016b381856020860162001b44565b620016be8162001c5c565b840191505092915050565b6000620016d860268362001a37565b9150620016e58262001c6d565b604082019050919050565b6000620016ff601e8362001a37565b91506200170c8262001cbc565b602082019050919050565b600062001726602a8362001a37565b9150620017338262001ce5565b604082019050919050565b60006200174d60208362001a37565b91506200175a8262001d34565b602082019050919050565b600062001774603a8362001a37565b9150620017818262001d5d565b604082019050919050565b60006200179b60288362001a37565b9150620017a88262001dac565b604082019050919050565b6000606083016000830151620017cd600086018262001578565b5060208301518482036020860152620017e7828262001688565b9150506040830151620017fe604086018262001578565b508091505092915050565b620018148162001b2b565b82525050565b6000620018298284866200165f565b91508190509392505050565b60006020820190506200184c600083018462001589565b92915050565b600060208201905081810360008301526200186e81846200159a565b905092915050565b600060408201905081810360008301526200189281856200159a565b9050620018a360208301846200161b565b9392505050565b60006060820190508181036000830152620018c78187896200162c565b90508181036020830152620018de8185876200162c565b9050620018ef604083018462001589565b9695505050505050565b600060208201905081810360008301526200191481620016c9565b9050919050565b600060208201905081810360008301526200193681620016f0565b9050919050565b60006020820190508181036000830152620019588162001717565b9050919050565b600060208201905081810360008301526200197a816200173e565b9050919050565b600060208201905081810360008301526200199c8162001765565b9050919050565b60006020820190508181036000830152620019be816200178c565b9050919050565b6000602082019050620019dc600083018462001809565b92915050565b6000819050602082019050919050565b600081519050919050565b600081519050919050565b6000602082019050919050565b600082825260208201905092915050565b600082825260208201905092915050565b600082825260208201905092915050565b600081905092915050565b600062001a608262001b2b565b915062001a6d8362001b2b565b9250827fffffffffffffffffffffffffffffffffffffffffffffffffffffffffffffffff0382111562001aa55762001aa462001bfe565b5b828201905092915050565b600062001abd8262001b2b565b915062001aca8362001b2b565b92508282101562001ae05762001adf62001bfe565b5b828203905092915050565b600062001af88262001b0b565b9050919050565b60008115159050919050565b600073ffffffffffffffffffffffffffffffffffffffff82169050919050565b6000819050919050565b82818337600083830152505050565b60005b8381101562001b6457808201518184015260208101905062001b47565b8381111562001b74576000848401525b50505050565b6000600282049050600182168062001b9357607f821691505b6020821081141562001baa5762001ba962001c2d565b5b50919050565b600062001bbd8262001b2b565b91507fffffffffffffffffffffffffffffffffffffffffffffffffffffffffffffffff82141562001bf35762001bf262001bfe565b5b600182019050919050565b7f4e487b7100000000000000000000000000000000000000000000000000000000600052601160045260246000fd5b7f4e487b7100000000000000000000000000000000000000000000000000000000600052602260045260246000fd5b6000601f19601f8301169050919050565b7f4f776e61626c653a206e6577206f776e657220697320746865207a65726f206160008201527f6464726573730000000000000000000000000000000000000000000000000000602082015250565b7f4f6e6c792063726561746f722063616e2065646974206d657461446174610000600082015250565b7f436f6e747261637420646f65736e277420657869737420696e2073636f70652060008201527f6f6620466163746f727900000000000000000000000000000000000000000000602082015250565b7f4f776e61626c653a2063616c6c6572206973206e6f7420746865206f776e6572600082015250565b7f456e6420496e646578206e6565647320746f206265206772656174657220746860008201527f616e206f7220657175616c20746f20737461727420496e646578000000000000602082015250565b7f426f7265616c6973526f79616c74793a2050617920746865207265717569726560008201527f6420616d6f756e74000000000000000000000000000000000000000000000000602082015250565b62001e068162001aeb565b811462001e1257600080fd5b50565b62001e208162001b2b565b811462001e2c57600080fd5b5056fe60806040523480156200001157600080fd5b5060405162004356380380620043568339818101604052810190620000379190620002e3565b8282620000596200004d620000de60201b60201c565b620000e660201b60201c565b60018081905550816002908051906020019062000078929190620001aa565b50806003908051906020019062000091929190620001aa565b50505080600d60006101000a81548173ffffffffffffffffffffffffffffffffffffffff021916908373ffffffffffffffffffffffffffffffffffffffff16021790555050505062000529565b600033905090565b60008060009054906101000a900473ffffffffffffffffffffffffffffffffffffffff169050816000806101000a81548173ffffffffffffffffffffffffffffffffffffffff021916908373ffffffffffffffffffffffffffffffffffffffff1602179055508173ffffffffffffffffffffffffffffffffffffffff168173ffffffffffffffffffffffffffffffffffffffff167f8be0079c531659141344cd1fd0a4f28419497f9722a3daafe3b4186f6b6457e060405160405180910390a35050565b828054620001b89062000434565b90600052602060002090601f016020900481019282620001dc576000855562000228565b82601f10620001f757805160ff191683800117855562000228565b8280016001018555821562000228579182015b82811115620002275782518255916020019190600101906200020a565b5b5090506200023791906200023b565b5090565b5b80821115620002565760008160009055506001016200023c565b5090565b6000620002716200026b8462000394565b6200036b565b9050828152602081018484840111156200028a57600080fd5b62000297848285620003fe565b509392505050565b600081519050620002b0816200050f565b92915050565b600082601f830112620002c857600080fd5b8151620002da8482602086016200025a565b91505092915050565b600080600060608486031215620002f957600080fd5b600084015167ffffffffffffffff8111156200031457600080fd5b6200032286828701620002b6565b935050602084015167ffffffffffffffff8111156200034057600080fd5b6200034e86828701620002b6565b925050604062000361868287016200029f565b9150509250925092565b6000620003776200038a565b90506200038582826200046a565b919050565b6000604051905090565b600067ffffffffffffffff821115620003b257620003b1620004cf565b5b620003bd82620004fe565b9050602081019050919050565b6000620003d782620003de565b9050919050565b600073ffffffffffffffffffffffffffffffffffffffff82169050919050565b60005b838110156200041e57808201518184015260208101905062000401565b838111156200042e576000848401525b50505050565b600060028204905060018216806200044d57607f821691505b60208210811415620004645762000463620004a0565b5b50919050565b6200047582620004fe565b810181811067ffffffffffffffff82111715620004975762000496620004cf565b5b80604052505050565b7f4e487b7100000000000000000000000000000000000000000000000000000000600052602260045260246000fd5b7f4e487b7100000000000000000000000000000000000000000000000000000000600052604160045260246000fd5b6000601f19601f8301169050919050565b6200051a81620003ca565b81146200052657600080fd5b50565b613e1d80620005396000396000f3fe60806040526004361061014f5760003560e01c80634f6ccce7116100b657806395d89b411161006f57806395d89b41146104c2578063a22cb465146104ed578063b88d4fde14610516578063c87b56dd1461053f578063e985e9c51461057c578063f2fde38b146105b957610156565b80634f6ccce71461038c5780636352211e146103c957806370a0823114610406578063715018a614610443578063833b7b781461045a5780638da5cb5b1461049757610156565b806318160ddd1161010857806318160ddd1461027d57806323b872dd146102a85780632a55205a146102d15780632f745c591461030f5780633ccfd60b1461034c57806342842e0e1461036357610156565b806301ffc9a71461015b578063056b01ce1461019857806306fdde03146101c1578063081812fc146101ec578063095ea7b3146102295780630ee2cb101461025257610156565b3661015657005b600080fd5b34801561016757600080fd5b50610182600480360381019061017d9190612b30565b6105e2565b60405161018f91906130a2565b60405180910390f35b3480156101a457600080fd5b506101bf60048036038101906101ba9190612b82565b61072c565b005b3480156101cd57600080fd5b506101d661084a565b6040516101e391906130bd565b60405180910390f35b3480156101f857600080fd5b50610213600480360381019061020e9190612bda565b6108dc565b6040516102209190613012565b60405180910390f35b34801561023557600080fd5b50610250600480360381019061024b9190612af4565b610961565b005b34801561025e57600080fd5b50610267610a79565b6040516102749190613012565b60405180910390f35b34801561028957600080fd5b50610292610aa3565b60405161029f919061337f565b60405180910390f35b3480156102b457600080fd5b506102cf60048036038101906102ca91906129ee565b610ab0565b005b3480156102dd57600080fd5b506102f860048036038101906102f39190612c03565b610b10565b604051610306929190613079565b60405180910390f35b34801561031b57600080fd5b5061033660048036038101906103319190612af4565b610b6c565b604051610343919061337f565b60405180910390f35b34801561035857600080fd5b50610361610c11565b005b34801561036f57600080fd5b5061038a600480360381019061038591906129ee565b610d0c565b005b34801561039857600080fd5b506103b360048036038101906103ae9190612bda565b610d2c565b6040516103c0919061337f565b60405180910390f35b3480156103d557600080fd5b506103f060048036038101906103eb9190612bda565b610dc3565b6040516103fd9190613012565b60405180910390f35b34801561041257600080fd5b5061042d60048036038101906104289190612989565b610e75565b60405161043a919061337f565b60405180910390f35b34801561044f57600080fd5b50610458610f2d565b005b34801561046657600080fd5b50610481600480360381019061047c9190612bda565b610fb5565b60405161048e919061337f565b60405180910390f35b3480156104a357600080fd5b506104ac610fd2565b6040516104b99190613012565b60405180910390f35b3480156104ce57600080fd5b506104d7610ffb565b6040516104e491906130bd565b60405180910390f35b3480156104f957600080fd5b50610514600480360381019061050f9190612ab8565b61108d565b005b34801561052257600080fd5b5061053d60048036038101906105389190612a3d565b6110a3565b005b34801561054b57600080fd5b5061056660048036038101906105619190612bda565b611105565b60405161057391906130bd565b60405180910390f35b34801561058857600080fd5b506105a3600480360381019061059e91906129b2565b611117565b6040516105b091906130a2565b60405180910390f35b3480156105c557600080fd5b506105e060048036038101906105db9190612989565b6111ab565b005b60007f80ac58cd000000000000000000000000000000000000000000000000000000007bffffffffffffffffffffffffffffffffffffffffffffffffffffffff1916827bffffffffffffffffffffffffffffffffffffffffffffffffffffffff191614806106ad57507f780e9d63000000000000000000000000000000000000000000000000000000007bffffffffffffffffffffffffffffffffffffffffffffffffffffffff1916827bffffffffffffffffffffffffffffffffffffffffffffffffffffffff1916145b8061071557507f2a55205a000000000000000000000000000000000000000000000000000000007bffffffffffffffffffffffffffffffffffffffffffffffffffffffff1916827bffffffffffffffffffffffffffffffffffffffffffffffffffffffff1916145b806107255750610724826112a3565b5b9050919050565b600d60009054906101000a900473ffffffffffffffffffffffffffffffffffffffff1673ffffffffffffffffffffffffffffffffffffffff163373ffffffffffffffffffffffffffffffffffffffff16146107bc576040517f08c379a00000000000000000000000000000000000000000000000000000000081526004016107b3906131df565b60405180910390fd5b6107c6600e61131d565b60006107d2600e611333565b90506107de3382611341565b61082c8185858080601f016020809104026020016040519081016040528093929190818152602001838380828437600081840152601f19601f8201169050808301925050505050505061150f565b81600f60008381526020019081526020016000208190555050505050565b606060028054610859906135fe565b80601f0160208091040260200160405190810160405280929190818152602001828054610885906135fe565b80156108d25780601f106108a7576101008083540402835291602001916108d2565b820191906000526020600020905b8154815290600101906020018083116108b557829003601f168201915b5050505050905090565b60006108e782611583565b610926576040517f08c379a000000000000000000000000000000000000000000000000000000000815260040161091d9061329f565b60405180910390fd5b6006600083815260200190815260200160002060009054906101000a900473ffffffffffffffffffffffffffffffffffffffff169050919050565b600061096c82610dc3565b90508073ffffffffffffffffffffffffffffffffffffffff168373ffffffffffffffffffffffffffffffffffffffff1614156109dd576040517f08c379a00000000000000000000000000000000000000000000000000000000081526004016109d49061331f565b60405180910390fd5b8073ffffffffffffffffffffffffffffffffffffffff166109fc6115ef565b73ffffffffffffffffffffffffffffffffffffffff161480610a2b5750610a2a81610a256115ef565b611117565b5b610a6a576040517f08c379a0000000000000000000000000000000000000000000000000000000008152600401610a61906131bf565b60405180910390fd5b610a7483836115f7565b505050565b6000600d60009054906101000a900473ffffffffffffffffffffffffffffffffffffffff16905090565b6000600a80549050905090565b610ac1610abb6115ef565b826116b0565b610b00576040517f08c379a0000000000000000000000000000000000000000000000000000000008152600401610af79061333f565b60405180910390fd5b610b0b83838361178e565b505050565b600080600d60009054906101000a900473ffffffffffffffffffffffffffffffffffffffff1691506064600f60008681526020019081526020016000205484610b5991906134ba565b610b639190613489565b90509250929050565b6000610b7783610e75565b8210610bb8576040517f08c379a0000000000000000000000000000000000000000000000000000000008152600401610baf906130df565b60405180910390fd5b600860008473ffffffffffffffffffffffffffffffffffffffff1673ffffffffffffffffffffffffffffffffffffffff168152602001908152602001600020600083815260200190815260200160002054905092915050565b600d60009054906101000a900473ffffffffffffffffffffffffffffffffffffffff1673ffffffffffffffffffffffffffffffffffffffff163373ffffffffffffffffffffffffffffffffffffffff1614610ca1576040517f08c379a0000000000000000000000000000000000000000000000000000000008152600401610c98906131df565b60405180910390fd5b600d60009054906101000a900473ffffffffffffffffffffffffffffffffffffffff1673ffffffffffffffffffffffffffffffffffffffff166108fc479081150290604051600060405180830381858888f19350505050158015610d09573d6000803e3d6000fd5b50565b610d27838383604051806020016040528060008152506110a3565b505050565b6000610d36610aa3565b8210610d77576040517f08c379a0000000000000000000000000000000000000000000000000000000008152600401610d6e9061335f565b60405180910390fd5b600a8281548110610db1577f4e487b7100000000000000000000000000000000000000000000000000000000600052603260045260246000fd5b90600052602060002001549050919050565b6000806004600084815260200190815260200160002060009054906101000a900473ffffffffffffffffffffffffffffffffffffffff169050600073ffffffffffffffffffffffffffffffffffffffff168173ffffffffffffffffffffffffffffffffffffffff161415610e6c576040517f08c379a0000000000000000000000000000000000000000000000000000000008152600401610e639061321f565b60405180910390fd5b80915050919050565b60008073ffffffffffffffffffffffffffffffffffffffff168273ffffffffffffffffffffffffffffffffffffffff161415610ee6576040517f08c379a0000000000000000000000000000000000000000000000000000000008152600401610edd906131ff565b60405180910390fd5b600560008373ffffffffffffffffffffffffffffffffffffffff1673ffffffffffffffffffffffffffffffffffffffff168152602001908152602001600020549050919050565b610f356115ef565b73ffffffffffffffffffffffffffffffffffffffff16610f53610fd2565b73ffffffffffffffffffffffffffffffffffffffff1614610fa9576040517f08c379a0000000000000000000000000000000000000000000000000000000008152600401610fa0906132bf565b60405180910390fd5b610fb360006119ea565b565b6000600f6000838152602001908152602001600020549050919050565b60008060009054906101000a900473ffffffffffffffffffffffffffffffffffffffff16905090565b60606003805461100a906135fe565b80601f0160208091040260200160405190810160405280929190818152602001828054611036906135fe565b80156110835780601f1061105857610100808354040283529160200191611083565b820191906000526020600020905b81548152906001019060200180831161106657829003601f168201915b5050505050905090565b61109f6110986115ef565b8383611aae565b5050565b6110b46110ae6115ef565b836116b0565b6110f3576040517f08c379a00000000000000000000000000000000000000000000000000000000081526004016110ea9061333f565b60405180910390fd5b6110ff84848484611c1b565b50505050565b606061111082611c77565b9050919050565b6000600760008473ffffffffffffffffffffffffffffffffffffffff1673ffffffffffffffffffffffffffffffffffffffff16815260200190815260200160002060008373ffffffffffffffffffffffffffffffffffffffff1673ffffffffffffffffffffffffffffffffffffffff16815260200190815260200160002060009054906101000a900460ff16905092915050565b6111b36115ef565b73ffffffffffffffffffffffffffffffffffffffff166111d1610fd2565b73ffffffffffffffffffffffffffffffffffffffff1614611227576040517f08c379a000000000000000000000000000000000000000000000000000000000815260040161121e906132bf565b60405180910390fd5b600073ffffffffffffffffffffffffffffffffffffffff168173ffffffffffffffffffffffffffffffffffffffff161415611297576040517f08c379a000000000000000000000000000000000000000000000000000000000815260040161128e9061311f565b60405180910390fd5b6112a0816119ea565b50565b60007f780e9d63000000000000000000000000000000000000000000000000000000007bffffffffffffffffffffffffffffffffffffffffffffffffffffffff1916827bffffffffffffffffffffffffffffffffffffffffffffffffffffffff19161480611316575061131582611dc9565b5b9050919050565b6001816000016000828254019250508190555050565b600081600001549050919050565b600073ffffffffffffffffffffffffffffffffffffffff168273ffffffffffffffffffffffffffffffffffffffff1614156113b1576040517f08c379a00000000000000000000000000000000000000000000000000000000081526004016113a89061325f565b60405180910390fd5b6113ba81611583565b156113fa576040517f08c379a00000000000000000000000000000000000000000000000000000000081526004016113f19061313f565b60405180910390fd5b61140660008383611eab565b6001600560008473ffffffffffffffffffffffffffffffffffffffff1673ffffffffffffffffffffffffffffffffffffffff16815260200190815260200160002060008282546114569190613433565b92505081905550816004600083815260200190815260200160002060006101000a81548173ffffffffffffffffffffffffffffffffffffffff021916908373ffffffffffffffffffffffffffffffffffffffff160217905550808273ffffffffffffffffffffffffffffffffffffffff16600073ffffffffffffffffffffffffffffffffffffffff167fddf252ad1be2c89b69c2b068fc378daa952ba7f163c4a11628f55a4df523b3ef60405160405180910390a45050565b61151882611583565b611557576040517f08c379a000000000000000000000000000000000000000000000000000000000815260040161154e9061323f565b60405180910390fd5b80600c6000848152602001908152602001600020908051906020019061157e9291906127cb565b505050565b60008073ffffffffffffffffffffffffffffffffffffffff166004600084815260200190815260200160002060009054906101000a900473ffffffffffffffffffffffffffffffffffffffff1673ffffffffffffffffffffffffffffffffffffffff1614159050919050565b600033905090565b816006600083815260200190815260200160002060006101000a81548173ffffffffffffffffffffffffffffffffffffffff021916908373ffffffffffffffffffffffffffffffffffffffff160217905550808273ffffffffffffffffffffffffffffffffffffffff1661166a83610dc3565b73ffffffffffffffffffffffffffffffffffffffff167f8c5be1e5ebec7d5bd14f71427d1e84f3dd0314c0f7b2291e5b200ac8c7c3b92560405160405180910390a45050565b60006116bb82611583565b6116fa576040517f08c379a00000000000000000000000000000000000000000000000000000000081526004016116f19061319f565b60405180910390fd5b600061170583610dc3565b90508073ffffffffffffffffffffffffffffffffffffffff168473ffffffffffffffffffffffffffffffffffffffff16148061177457508373ffffffffffffffffffffffffffffffffffffffff1661175c846108dc565b73ffffffffffffffffffffffffffffffffffffffff16145b8061178557506117848185611117565b5b91505092915050565b8273ffffffffffffffffffffffffffffffffffffffff166117ae82610dc3565b73ffffffffffffffffffffffffffffffffffffffff1614611804576040517f08c379a00000000000000000000000000000000000000000000000000000000081526004016117fb906132df565b60405180910390fd5b600073ffffffffffffffffffffffffffffffffffffffff168273ffffffffffffffffffffffffffffffffffffffff161415611874576040517f08c379a000000000000000000000000000000000000000000000000000000000815260040161186b9061315f565b60405180910390fd5b61187f838383611eab565b61188a6000826115f7565b6001600560008573ffffffffffffffffffffffffffffffffffffffff1673ffffffffffffffffffffffffffffffffffffffff16815260200190815260200160002060008282546118da9190613514565b925050819055506001600560008473ffffffffffffffffffffffffffffffffffffffff1673ffffffffffffffffffffffffffffffffffffffff16815260200190815260200160002060008282546119319190613433565b92505081905550816004600083815260200190815260200160002060006101000a81548173ffffffffffffffffffffffffffffffffffffffff021916908373ffffffffffffffffffffffffffffffffffffffff160217905550808273ffffffffffffffffffffffffffffffffffffffff168473ffffffffffffffffffffffffffffffffffffffff167fddf252ad1be2c89b69c2b068fc378daa952ba7f163c4a11628f55a4df523b3ef60405160405180910390a4505050565b60008060009054906101000a900473ffffffffffffffffffffffffffffffffffffffff169050816000806101000a81548173ffffffffffffffffffffffffffffffffffffffff021916908373ffffffffffffffffffffffffffffffffffffffff1602179055508173ffffffffffffffffffffffffffffffffffffffff168173ffffffffffffffffffffffffffffffffffffffff167f8be0079c531659141344cd1fd0a4f28419497f9722a3daafe3b4186f6b6457e060405160405180910390a35050565b8173ffffffffffffffffffffffffffffffffffffffff168373ffffffffffffffffffffffffffffffffffffffff161415611b1d576040517f08c379a0000000000000000000000000000000000000000000000000000000008152600401611b149061317f565b60405180910390fd5b80600760008573ffffffffffffffffffffffffffffffffffffffff1673ffffffffffffffffffffffffffffffffffffffff16815260200190815260200160002060008473ffffffffffffffffffffffffffffffffffffffff1673ffffffffffffffffffffffffffffffffffffffff16815260200190815260200160002060006101000a81548160ff0219169083151502179055508173ffffffffffffffffffffffffffffffffffffffff168373ffffffffffffffffffffffffffffffffffffffff167f17307eab39ab6107e8899845ad3d59bd9653f200f220920489ca2b5937696c3183604051611c0e91906130a2565b60405180910390a3505050565b611c2684848461178e565b611c3284848484611ebb565b611c71576040517f08c379a0000000000000000000000000000000000000000000000000000000008152600401611c68906130ff565b60405180910390fd5b50505050565b6060611c8282611583565b611cc1576040517f08c379a0000000000000000000000000000000000000000000000000000000008152600401611cb89061327f565b60405180910390fd5b6000600c60008481526020019081526020016000208054611ce1906135fe565b80601f0160208091040260200160405190810160405280929190818152602001828054611d0d906135fe565b8015611d5a5780601f10611d2f57610100808354040283529160200191611d5a565b820191906000526020600020905b815481529060010190602001808311611d3d57829003601f168201915b505050505090506000611d6b612052565b9050600081511415611d81578192505050611dc4565b600082511115611db6578082604051602001611d9e929190612fee565b60405160208183030381529060405292505050611dc4565b611dbf84612069565b925050505b919050565b60007f80ac58cd000000000000000000000000000000000000000000000000000000007bffffffffffffffffffffffffffffffffffffffffffffffffffffffff1916827bffffffffffffffffffffffffffffffffffffffffffffffffffffffff19161480611e9457507f5b5e139f000000000000000000000000000000000000000000000000000000007bffffffffffffffffffffffffffffffffffffffffffffffffffffffff1916827bffffffffffffffffffffffffffffffffffffffffffffffffffffffff1916145b80611ea45750611ea382612110565b5b9050919050565b611eb683838361217a565b505050565b6000611edc8473ffffffffffffffffffffffffffffffffffffffff1661228e565b15612045578373ffffffffffffffffffffffffffffffffffffffff1663150b7a02611f056115ef565b8786866040518563ffffffff1660e01b8152600401611f27949392919061302d565b602060405180830381600087803b158015611f4157600080fd5b505af1925050508015611f7257506040513d601f19601f82011682018060405250810190611f6f9190612b59565b60015b611ff5573d8060008114611fa2576040519150601f19603f3d011682016040523d82523d6000602084013e611fa7565b606091505b50600081511415611fed576040517f08c379a0000000000000000000000000000000000000000000000000000000008152600401611fe4906130ff565b60405180910390fd5b805181602001fd5b63150b7a0260e01b7bffffffffffffffffffffffffffffffffffffffffffffffffffffffff1916817bffffffffffffffffffffffffffffffffffffffffffffffffffffffff19161491505061204a565b600190505b949350505050565b606060405180602001604052806000815250905090565b606061207482611583565b6120b3576040517f08c379a00000000000000000000000000000000000000000000000000000000081526004016120aa906132ff565b60405180910390fd5b60006120bd612052565b905060008151116120dd5760405180602001604052806000815250612108565b806120e7846122a1565b6040516020016120f8929190612fee565b6040516020818303038152906040525b915050919050565b60007f01ffc9a7000000000000000000000000000000000000000000000000000000007bffffffffffffffffffffffffffffffffffffffffffffffffffffffff1916827bffffffffffffffffffffffffffffffffffffffffffffffffffffffff1916149050919050565b61218583838361244e565b600073ffffffffffffffffffffffffffffffffffffffff168373ffffffffffffffffffffffffffffffffffffffff1614156121c8576121c381612453565b612207565b8173ffffffffffffffffffffffffffffffffffffffff168373ffffffffffffffffffffffffffffffffffffffff161461220657612205838261249c565b5b5b600073ffffffffffffffffffffffffffffffffffffffff168273ffffffffffffffffffffffffffffffffffffffff16141561224a5761224581612609565b612289565b8273ffffffffffffffffffffffffffffffffffffffff168273ffffffffffffffffffffffffffffffffffffffff161461228857612287828261274c565b5b5b505050565b600080823b905060008111915050919050565b606060008214156122e9576040518060400160405280600181526020017f30000000000000000000000000000000000000000000000000000000000000008152509050612449565b600082905060005b6000821461231b57808061230490613661565b915050600a826123149190613489565b91506122f1565b60008167ffffffffffffffff81111561235d577f4e487b7100000000000000000000000000000000000000000000000000000000600052604160045260246000fd5b6040519080825280601f01601f19166020018201604052801561238f5781602001600182028036833780820191505090505b5090505b60008514612442576001826123a89190613514565b9150600a856123b791906136aa565b60306123c39190613433565b60f81b8183815181106123ff577f4e487b7100000000000000000000000000000000000000000000000000000000600052603260045260246000fd5b60200101907effffffffffffffffffffffffffffffffffffffffffffffffffffffffffffff1916908160001a905350600a8561243b9190613489565b9450612393565b8093505050505b919050565b505050565b600a80549050600b600083815260200190815260200160002081905550600a81908060018154018082558091505060019003906000526020600020016000909190919091505550565b600060016124a984610e75565b6124b39190613514565b9050600060096000848152602001908152602001600020549050818114612598576000600860008673ffffffffffffffffffffffffffffffffffffffff1673ffffffffffffffffffffffffffffffffffffffff168152602001908152602001600020600084815260200190815260200160002054905080600860008773ffffffffffffffffffffffffffffffffffffffff1673ffffffffffffffffffffffffffffffffffffffff168152602001908152602001600020600084815260200190815260200160002081905550816009600083815260200190815260200160002081905550505b6009600084815260200190815260200160002060009055600860008573ffffffffffffffffffffffffffffffffffffffff1673ffffffffffffffffffffffffffffffffffffffff16815260200190815260200160002060008381526020019081526020016000206000905550505050565b60006001600a8054905061261d9190613514565b90506000600b60008481526020019081526020016000205490506000600a8381548110612673577f4e487b7100000000000000000000000000000000000000000000000000000000600052603260045260246000fd5b9060005260206000200154905080600a83815481106126bb577f4e487b7100000000000000000000000000000000000000000000000000000000600052603260045260246000fd5b906000526020600020018190555081600b600083815260200190815260200160002081905550600b600085815260200190815260200160002060009055600a805480612730577f4e487b7100000000000000000000000000000000000000000000000000000000600052603160045260246000fd5b6001900381819060005260206000200160009055905550505050565b600061275783610e75565b905081600860008573ffffffffffffffffffffffffffffffffffffffff1673ffffffffffffffffffffffffffffffffffffffff168152602001908152602001600020600083815260200190815260200160002081905550806009600084815260200190815260200160002081905550505050565b8280546127d7906135fe565b90600052602060002090601f0160209004810192826127f95760008555612840565b82601f1061281257805160ff1916838001178555612840565b82800160010185558215612840579182015b8281111561283f578251825591602001919060010190612824565b5b50905061284d9190612851565b5090565b5b8082111561286a576000816000905550600101612852565b5090565b600061288161287c846133bf565b61339a565b90508281526020810184848401111561289957600080fd5b6128a48482856135bc565b509392505050565b6000813590506128bb81613d8b565b92915050565b6000813590506128d081613da2565b92915050565b6000813590506128e581613db9565b92915050565b6000815190506128fa81613db9565b92915050565b600082601f83011261291157600080fd5b813561292184826020860161286e565b91505092915050565b60008083601f84011261293c57600080fd5b8235905067ffffffffffffffff81111561295557600080fd5b60208301915083600182028301111561296d57600080fd5b9250929050565b60008135905061298381613dd0565b92915050565b60006020828403121561299b57600080fd5b60006129a9848285016128ac565b91505092915050565b600080604083850312156129c557600080fd5b60006129d3858286016128ac565b92505060206129e4858286016128ac565b9150509250929050565b600080600060608486031215612a0357600080fd5b6000612a11868287016128ac565b9350506020612a22868287016128ac565b9250506040612a3386828701612974565b9150509250925092565b60008060008060808587031215612a5357600080fd5b6000612a61878288016128ac565b9450506020612a72878288016128ac565b9350506040612a8387828801612974565b925050606085013567ffffffffffffffff811115612aa057600080fd5b612aac87828801612900565b91505092959194509250565b60008060408385031215612acb57600080fd5b6000612ad9858286016128ac565b9250506020612aea858286016128c1565b9150509250929050565b60008060408385031215612b0757600080fd5b6000612b15858286016128ac565b9250506020612b2685828601612974565b9150509250929050565b600060208284031215612b4257600080fd5b6000612b50848285016128d6565b91505092915050565b600060208284031215612b6b57600080fd5b6000612b79848285016128eb565b91505092915050565b600080600060408486031215612b9757600080fd5b600084013567ffffffffffffffff811115612bb157600080fd5b612bbd8682870161292a565b93509350506020612bd086828701612974565b9150509250925092565b600060208284031215612bec57600080fd5b6000612bfa84828501612974565b91505092915050565b60008060408385031215612c1657600080fd5b6000612c2485828601612974565b9250506020612c3585828601612974565b9150509250929050565b612c4881613548565b82525050565b612c578161355a565b82525050565b6000612c68826133f0565b612c728185613406565b9350612c828185602086016135cb565b612c8b81613797565b840191505092915050565b6000612ca1826133fb565b612cab8185613417565b9350612cbb8185602086016135cb565b612cc481613797565b840191505092915050565b6000612cda826133fb565b612ce48185613428565b9350612cf48185602086016135cb565b80840191505092915050565b6000612d0d602b83613417565b9150612d18826137a8565b604082019050919050565b6000612d30603283613417565b9150612d3b826137f7565b604082019050919050565b6000612d53602683613417565b9150612d5e82613846565b604082019050919050565b6000612d76601c83613417565b9150612d8182613895565b602082019050919050565b6000612d99602483613417565b9150612da4826138be565b604082019050919050565b6000612dbc601983613417565b9150612dc78261390d565b602082019050919050565b6000612ddf602c83613417565b9150612dea82613936565b604082019050919050565b6000612e02603883613417565b9150612e0d82613985565b604082019050919050565b6000612e25602883613417565b9150612e30826139d4565b604082019050919050565b6000612e48602a83613417565b9150612e5382613a23565b604082019050919050565b6000612e6b602983613417565b9150612e7682613a72565b604082019050919050565b6000612e8e602e83613417565b9150612e9982613ac1565b604082019050919050565b6000612eb1602083613417565b9150612ebc82613b10565b602082019050919050565b6000612ed4603183613417565b9150612edf82613b39565b604082019050919050565b6000612ef7602c83613417565b9150612f0282613b88565b604082019050919050565b6000612f1a602083613417565b9150612f2582613bd7565b602082019050919050565b6000612f3d602983613417565b9150612f4882613c00565b604082019050919050565b6000612f60602f83613417565b9150612f6b82613c4f565b604082019050919050565b6000612f83602183613417565b9150612f8e82613c9e565b604082019050919050565b6000612fa6603183613417565b9150612fb182613ced565b604082019050919050565b6000612fc9602c83613417565b9150612fd482613d3c565b604082019050919050565b612fe8816135b2565b82525050565b6000612ffa8285612ccf565b91506130068284612ccf565b91508190509392505050565b60006020820190506130276000830184612c3f565b92915050565b60006080820190506130426000830187612c3f565b61304f6020830186612c3f565b61305c6040830185612fdf565b818103606083015261306e8184612c5d565b905095945050505050565b600060408201905061308e6000830185612c3f565b61309b6020830184612fdf565b9392505050565b60006020820190506130b76000830184612c4e565b92915050565b600060208201905081810360008301526130d78184612c96565b905092915050565b600060208201905081810360008301526130f881612d00565b9050919050565b6000602082019050818103600083015261311881612d23565b9050919050565b6000602082019050818103600083015261313881612d46565b9050919050565b6000602082019050818103600083015261315881612d69565b9050919050565b6000602082019050818103600083015261317881612d8c565b9050919050565b6000602082019050818103600083015261319881612daf565b9050919050565b600060208201905081810360008301526131b881612dd2565b9050919050565b600060208201905081810360008301526131d881612df5565b9050919050565b600060208201905081810360008301526131f881612e18565b9050919050565b6000602082019050818103600083015261321881612e3b565b9050919050565b6000602082019050818103600083015261323881612e5e565b9050919050565b6000602082019050818103600083015261325881612e81565b9050919050565b6000602082019050818103600083015261327881612ea4565b9050919050565b6000602082019050818103600083015261329881612ec7565b9050919050565b600060208201905081810360008301526132b881612eea565b9050919050565b600060208201905081810360008301526132d881612f0d565b9050919050565b600060208201905081810360008301526132f881612f30565b9050919050565b6000602082019050818103600083015261331881612f53565b9050919050565b6000602082019050818103600083015261333881612f76565b9050919050565b6000602082019050818103600083015261335881612f99565b9050919050565b6000602082019050818103600083015261337881612fbc565b9050919050565b60006020820190506133946000830184612fdf565b92915050565b60006133a46133b5565b90506133b08282613630565b919050565b6000604051905090565b600067ffffffffffffffff8211156133da576133d9613768565b5b6133e382613797565b9050602081019050919050565b600081519050919050565b600081519050919050565b600082825260208201905092915050565b600082825260208201905092915050565b600081905092915050565b600061343e826135b2565b9150613449836135b2565b9250827fffffffffffffffffffffffffffffffffffffffffffffffffffffffffffffffff0382111561347e5761347d6136db565b5b828201905092915050565b6000613494826135b2565b915061349f836135b2565b9250826134af576134ae61370a565b5b828204905092915050565b60006134c5826135b2565b91506134d0836135b2565b9250817fffffffffffffffffffffffffffffffffffffffffffffffffffffffffffffffff0483118215151615613509576135086136db565b5b828202905092915050565b600061351f826135b2565b915061352a836135b2565b92508282101561353d5761353c6136db565b5b828203905092915050565b600061355382613592565b9050919050565b60008115159050919050565b60007fffffffff0000000000000000000000000000000000000000000000000000000082169050919050565b600073ffffffffffffffffffffffffffffffffffffffff82169050919050565b6000819050919050565b82818337600083830152505050565b60005b838110156135e95780820151818401526020810190506135ce565b838111156135f8576000848401525b50505050565b6000600282049050600182168061361657607f821691505b6020821081141561362a57613629613739565b5b50919050565b61363982613797565b810181811067ffffffffffffffff8211171561365857613657613768565b5b80604052505050565b600061366c826135b2565b91507fffffffffffffffffffffffffffffffffffffffffffffffffffffffffffffffff82141561369f5761369e6136db565b5b600182019050919050565b60006136b5826135b2565b91506136c0836135b2565b9250826136d0576136cf61370a565b5b828206905092915050565b7f4e487b7100000000000000000000000000000000000000000000000000000000600052601160045260246000fd5b7f4e487b7100000000000000000000000000000000000000000000000000000000600052601260045260246000fd5b7f4e487b7100000000000000000000000000000000000000000000000000000000600052602260045260246000fd5b7f4e487b7100000000000000000000000000000000000000000000000000000000600052604160045260246000fd5b6000601f19601f8301169050919050565b7f455243373231456e756d657261626c653a206f776e657220696e646578206f7560008201527f74206f6620626f756e6473000000000000000000000000000000000000000000602082015250565b7f4552433732313a207472616e7366657220746f206e6f6e20455243373231526560008201527f63656976657220696d706c656d656e7465720000000000000000000000000000602082015250565b7f4f776e61626c653a206e6577206f776e657220697320746865207a65726f206160008201527f6464726573730000000000000000000000000000000000000000000000000000602082015250565b7f4552433732313a20746f6b656e20616c7265616479206d696e74656400000000600082015250565b7f4552433732313a207472616e7366657220746f20746865207a65726f2061646460008201527f7265737300000000000000000000000000000000000000000000000000000000602082015250565b7f4552433732313a20617070726f766520746f2063616c6c657200000000000000600082015250565b7f4552433732313a206f70657261746f7220717565727920666f72206e6f6e657860008201527f697374656e7420746f6b656e0000000000000000000000000000000000000000602082015250565b7f4552433732313a20617070726f76652063616c6c6572206973206e6f74206f7760008201527f6e6572206e6f7220617070726f76656420666f7220616c6c0000000000000000602082015250565b7f526f79616c747920436f6e7472616374203a2043616c6c6572206973206e6f7460008201527f2063726561746f72000000000000000000000000000000000000000000000000602082015250565b7f4552433732313a2062616c616e636520717565727920666f7220746865207a6560008201527f726f206164647265737300000000000000000000000000000000000000000000602082015250565b7f4552433732313a206f776e657220717565727920666f72206e6f6e657869737460008201527f656e7420746f6b656e0000000000000000000000000000000000000000000000602082015250565b7f45524337323155524953746f726167653a2055524920736574206f66206e6f6e60008201527f6578697374656e7420746f6b656e000000000000000000000000000000000000602082015250565b7f4552433732313a206d696e7420746f20746865207a65726f2061646472657373600082015250565b7f45524337323155524953746f726167653a2055524920717565727920666f722060008201527f6e6f6e6578697374656e7420746f6b656e000000000000000000000000000000602082015250565b7f4552433732313a20617070726f76656420717565727920666f72206e6f6e657860008201527f697374656e7420746f6b656e0000000000000000000000000000000000000000602082015250565b7f4f776e61626c653a2063616c6c6572206973206e6f7420746865206f776e6572600082015250565b7f4552433732313a207472616e73666572206f6620746f6b656e2074686174206960008201527f73206e6f74206f776e0000000000000000000000000000000000000000000000602082015250565b7f4552433732314d657461646174613a2055524920717565727920666f72206e6f60008201527f6e6578697374656e7420746f6b656e0000000000000000000000000000000000602082015250565b7f4552433732313a20617070726f76616c20746f2063757272656e74206f776e6560008201527f7200000000000000000000000000000000000000000000000000000000000000602082015250565b7f4552433732313a207472616e736665722063616c6c6572206973206e6f74206f60008201527f776e6572206e6f7220617070726f766564000000000000000000000000000000602082015250565b7f455243373231456e756d657261626c653a20676c6f62616c20696e646578206f60008201527f7574206f6620626f756e64730000000000000000000000000000000000000000602082015250565b613d9481613548565b8114613d9f57600080fd5b50565b613dab8161355a565b8114613db657600080fd5b50565b613dc281613566565b8114613dcd57600080fd5b50565b613dd9816135b2565b8114613de457600080fd5b5056fea26469706673582212200028009caceed4452f3653e2c79e7246552c6ed14a395342d85ce84bd2d8a28164736f6c63430008040033a2646970667358221220a76ed935ff755359e37f7b084346e92cfab5da2a4e7d5408fc9f8d8aefde974f64736f6c63430008040033",
  "linkReferences": {},
  "deployedLinkReferences": {}
}