{
  "_format": "hh-sol-artifact-1",
  "contractName": "NFTMarket",
  "sourceName": "contracts/NFTMarket.sol",
  "abi": [
    {
      "anonymous": false,
      "inputs": [
        {
          "indexed": true,
          "internalType": "uint256",
          "name": "itemId",
          "type": "uint256"
        },
        {
          "indexed": true,
          "internalType": "address",
          "name": "bidder",
          "type": "address"
        },
        {
          "indexed": false,
          "internalType": "uint256",
          "name": "amount",
          "type": "uint256"
        }
      ],
      "name": "MarketItemBid",
      "type": "event"
    },
    {
      "anonymous": false,
      "inputs": [
        {
          "indexed": true,
          "internalType": "uint256",
          "name": "itemId",
          "type": "uint256"
        },
        {
          "indexed": true,
          "internalType": "address",
          "name": "nftContract",
          "type": "address"
        },
        {
          "indexed": true,
          "internalType": "uint256",
          "name": "tokenId",
          "type": "uint256"
        },
        {
          "indexed": false,
          "internalType": "address",
          "name": "seller",
          "type": "address"
        },
        {
          "indexed": false,
          "internalType": "address",
          "name": "owner",
          "type": "address"
        },
        {
          "indexed": false,
          "internalType": "uint256",
          "name": "price",
          "type": "uint256"
        }
      ],
      "name": "MarketItemCreated",
      "type": "event"
    },
    {
      "anonymous": false,
      "inputs": [
        {
          "indexed": false,
          "internalType": "uint256",
          "name": "itemId",
          "type": "uint256"
        },
        {
          "indexed": true,
          "internalType": "address",
          "name": "nftContract",
          "type": "address"
        },
        {
          "indexed": true,
          "internalType": "address",
          "name": "seller",
          "type": "address"
        },
        {
          "indexed": true,
          "internalType": "address",
          "name": "newOwner",
          "type": "address"
        }
      ],
      "name": "MarketItemSold",
      "type": "event"
    },
    {
      "anonymous": false,
      "inputs": [
        {
          "indexed": false,
          "internalType": "uint256",
          "name": "itemId",
          "type": "uint256"
        }
      ],
      "name": "MarketItemUnlisted",
      "type": "event"
    },
    {
      "inputs": [],
      "name": "ERC2981INTERFACE",
      "outputs": [
        {
          "internalType": "bytes4",
          "name": "",
          "type": "bytes4"
        }
      ],
      "stateMutability": "view",
      "type": "function"
    },
    {
      "inputs": [],
      "name": "ERC721INTERFACE",
      "outputs": [
        {
          "internalType": "bytes4",
          "name": "",
          "type": "bytes4"
        }
      ],
      "stateMutability": "view",
      "type": "function"
    },
    {
      "inputs": [
        {
          "internalType": "uint256",
          "name": "itemId",
          "type": "uint256"
        }
      ],
      "name": "createAuctionBid",
      "outputs": [],
      "stateMutability": "payable",
      "type": "function"
    },
    {
      "inputs": [
        {
          "internalType": "address",
          "name": "nftContract",
          "type": "address"
        },
        {
          "internalType": "uint256",
          "name": "itemId",
          "type": "uint256"
        }
      ],
      "name": "createAuctionSale",
      "outputs": [],
      "stateMutability": "payable",
      "type": "function"
    },
    {
      "inputs": [
        {
          "internalType": "address",
          "name": "nftContract",
          "type": "address"
        },
        {
          "internalType": "uint256",
          "name": "tokenId",
          "type": "uint256"
        },
        {
          "internalType": "uint256",
          "name": "floorPrice",
          "type": "uint256"
        },
        {
          "internalType": "uint256",
          "name": "auctionDays",
          "type": "uint256"
        }
      ],
      "name": "createMarketAuction",
      "outputs": [],
      "stateMutability": "payable",
      "type": "function"
    },
    {
      "inputs": [
        {
          "internalType": "address",
          "name": "nftContract",
          "type": "address"
        },
        {
          "internalType": "uint256",
          "name": "tokenId",
          "type": "uint256"
        },
        {
          "internalType": "uint256",
          "name": "price",
          "type": "uint256"
        }
      ],
      "name": "createMarketItem",
      "outputs": [],
      "stateMutability": "payable",
      "type": "function"
    },
    {
      "inputs": [
        {
          "internalType": "address",
          "name": "nftContract",
          "type": "address"
        },
        {
          "internalType": "uint256",
          "name": "itemId",
          "type": "uint256"
        }
      ],
      "name": "createMarketSale",
      "outputs": [],
      "stateMutability": "payable",
      "type": "function"
    },
    {
      "inputs": [],
      "name": "fetchItemsCreated",
      "outputs": [
        {
          "components": [
            {
              "internalType": "uint256",
              "name": "itemId",
              "type": "uint256"
            },
            {
              "internalType": "address",
              "name": "nftContract",
              "type": "address"
            },
            {
              "internalType": "uint256",
              "name": "tokenId",
              "type": "uint256"
            },
            {
              "internalType": "address payable",
              "name": "creator",
              "type": "address"
            },
            {
              "internalType": "address payable",
              "name": "seller",
              "type": "address"
            },
            {
              "internalType": "address payable",
              "name": "owner",
              "type": "address"
            },
            {
              "internalType": "uint256",
              "name": "price",
              "type": "uint256"
            },
            {
              "internalType": "uint256",
              "name": "royalty",
              "type": "uint256"
            },
            {
              "internalType": "bool",
              "name": "isAuction",
              "type": "bool"
            },
            {
              "internalType": "bool",
              "name": "sold",
              "type": "bool"
            }
          ],
          "internalType": "struct NFTMarket.MarketItem[]",
          "name": "",
          "type": "tuple[]"
        }
      ],
      "stateMutability": "view",
      "type": "function"
    },
    {
      "inputs": [],
      "name": "fetchMarketItems",
      "outputs": [
        {
          "components": [
            {
              "internalType": "uint256",
              "name": "itemId",
              "type": "uint256"
            },
            {
              "internalType": "address",
              "name": "nftContract",
              "type": "address"
            },
            {
              "internalType": "uint256",
              "name": "tokenId",
              "type": "uint256"
            },
            {
              "internalType": "address payable",
              "name": "creator",
              "type": "address"
            },
            {
              "internalType": "address payable",
              "name": "seller",
              "type": "address"
            },
            {
              "internalType": "address payable",
              "name": "owner",
              "type": "address"
            },
            {
              "internalType": "uint256",
              "name": "price",
              "type": "uint256"
            },
            {
              "internalType": "uint256",
              "name": "royalty",
              "type": "uint256"
            },
            {
              "internalType": "bool",
              "name": "isAuction",
              "type": "bool"
            },
            {
              "internalType": "bool",
              "name": "sold",
              "type": "bool"
            }
          ],
          "internalType": "struct NFTMarket.MarketItem[]",
          "name": "",
          "type": "tuple[]"
        },
        {
          "components": [
            {
              "internalType": "uint256",
              "name": "highestBid",
              "type": "uint256"
            },
            {
              "internalType": "address",
              "name": "highestBidder",
              "type": "address"
            },
            {
              "internalType": "uint256",
              "name": "timeEnding",
              "type": "uint256"
            }
          ],
          "internalType": "struct NFTMarket.AuctionInfo[]",
          "name": "",
          "type": "tuple[]"
        }
      ],
      "stateMutability": "view",
      "type": "function"
    },
    {
      "inputs": [],
      "name": "fetchMyNFTs",
      "outputs": [
        {
          "components": [
            {
              "internalType": "uint256",
              "name": "itemId",
              "type": "uint256"
            },
            {
              "internalType": "address",
              "name": "nftContract",
              "type": "address"
            },
            {
              "internalType": "uint256",
              "name": "tokenId",
              "type": "uint256"
            },
            {
              "internalType": "address payable",
              "name": "creator",
              "type": "address"
            },
            {
              "internalType": "address payable",
              "name": "seller",
              "type": "address"
            },
            {
              "internalType": "address payable",
              "name": "owner",
              "type": "address"
            },
            {
              "internalType": "uint256",
              "name": "price",
              "type": "uint256"
            },
            {
              "internalType": "uint256",
              "name": "royalty",
              "type": "uint256"
            },
            {
              "internalType": "bool",
              "name": "isAuction",
              "type": "bool"
            },
            {
              "internalType": "bool",
              "name": "sold",
              "type": "bool"
            }
          ],
          "internalType": "struct NFTMarket.MarketItem[]",
          "name": "",
          "type": "tuple[]"
        }
      ],
      "stateMutability": "view",
      "type": "function"
    },
    {
      "inputs": [],
      "name": "fetchUserBids",
      "outputs": [
        {
          "components": [
            {
              "internalType": "uint256",
              "name": "itemId",
              "type": "uint256"
            },
            {
              "internalType": "address",
              "name": "nftContract",
              "type": "address"
            },
            {
              "internalType": "uint256",
              "name": "tokenId",
              "type": "uint256"
            },
            {
              "internalType": "address payable",
              "name": "creator",
              "type": "address"
            },
            {
              "internalType": "address payable",
              "name": "seller",
              "type": "address"
            },
            {
              "internalType": "address payable",
              "name": "owner",
              "type": "address"
            },
            {
              "internalType": "uint256",
              "name": "price",
              "type": "uint256"
            },
            {
              "internalType": "uint256",
              "name": "royalty",
              "type": "uint256"
            },
            {
              "internalType": "bool",
              "name": "isAuction",
              "type": "bool"
            },
            {
              "internalType": "bool",
              "name": "sold",
              "type": "bool"
            }
          ],
          "internalType": "struct NFTMarket.MarketItem[]",
          "name": "",
          "type": "tuple[]"
        },
        {
          "components": [
            {
              "internalType": "uint256",
              "name": "highestBid",
              "type": "uint256"
            },
            {
              "internalType": "address",
              "name": "highestBidder",
              "type": "address"
            },
            {
              "internalType": "uint256",
              "name": "timeEnding",
              "type": "uint256"
            }
          ],
          "internalType": "struct NFTMarket.AuctionInfo[]",
          "name": "",
          "type": "tuple[]"
        }
      ],
      "stateMutability": "view",
      "type": "function"
    },
    {
      "inputs": [
        {
          "internalType": "uint256",
          "name": "itemId",
          "type": "uint256"
        }
      ],
      "name": "unlistItem",
      "outputs": [],
      "stateMutability": "nonpayable",
      "type": "function"
    }
  ],
  "bytecode": "0x608060405234801561001057600080fd5b506001600081905550614b45806100286000396000f3fe6080604052600436106100a75760003560e01c80635a599da8116100645780635a599da8146101915780635f3d4806146101ba57806362822f80146101e6578063be87e08114610202578063c23b139e1461021e578063f064c32e1461023a576100a7565b806307cb1a6e146100ac5780630f08efe0146100d75780631879c75014610103578063202e37401461012e57806348b7e2b71461015957806358eb2df514610175575b600080fd5b3480156100b857600080fd5b506100c1610265565b6040516100ce9190614272565b60405180910390f35b3480156100e357600080fd5b506100ec610289565b6040516100fa92919061423b565b60405180910390f35b34801561010f57600080fd5b5061011861072e565b6040516101259190614272565b60405180910390f35b34801561013a57600080fd5b50610143610752565b6040516101509190614219565b60405180910390f35b610173600480360381019061016e9190613b67565b610b68565b005b61018f600480360381019061018a9190613bdf565b6110e4565b005b34801561019d57600080fd5b506101b860048036038101906101b39190613cba565b611911565b005b3480156101c657600080fd5b506101cf611da3565b6040516101dd92919061423b565b60405180910390f35b61020060048036038101906101fb9190613cba565b61230f565b005b61021c60048036038101906102179190613c2e565b612617565b005b61023860048036038101906102339190613b67565b612f45565b005b34801561024657600080fd5b5061024f613418565b60405161025c9190614219565b60405180910390f35b7f80ac58cd0000000000000000000000000000000000000000000000000000000081565b6060806000610298600161382e565b905060006102a6600261382e565b6102b0600161382e565b6102ba919061463a565b90506000808267ffffffffffffffff8111156102ff577f4e487b7100000000000000000000000000000000000000000000000000000000600052604160045260246000fd5b60405190808252806020026020018201604052801561033857816020015b6103256139ef565b81526020019060019003908161031d5790505b50905060008367ffffffffffffffff81111561037d577f4e487b7100000000000000000000000000000000000000000000000000000000600052604160045260246000fd5b6040519080825280602002602001820160405280156103b657816020015b6103a3613a9e565b81526020019060019003908161039b5790505b50905060005b8581101561071e57600360006001836103d5919061458a565b815260200190815260200160002060080160019054906101000a900460ff1661070b576000600182610407919061458a565b9050600060036000838152602001908152602001600020905060006004600084815260200190815260200160002090508160405180610140016040529081600082015481526020016001820160009054906101000a900473ffffffffffffffffffffffffffffffffffffffff1673ffffffffffffffffffffffffffffffffffffffff1673ffffffffffffffffffffffffffffffffffffffff168152602001600282015481526020016003820160009054906101000a900473ffffffffffffffffffffffffffffffffffffffff1673ffffffffffffffffffffffffffffffffffffffff1673ffffffffffffffffffffffffffffffffffffffff1681526020016004820160009054906101000a900473ffffffffffffffffffffffffffffffffffffffff1673ffffffffffffffffffffffffffffffffffffffff1673ffffffffffffffffffffffffffffffffffffffff1681526020016005820160009054906101000a900473ffffffffffffffffffffffffffffffffffffffff1673ffffffffffffffffffffffffffffffffffffffff1673ffffffffffffffffffffffffffffffffffffffff16815260200160068201548152602001600782015481526020016008820160009054906101000a900460ff161515151581526020016008820160019054906101000a900460ff161515151581525050868881518110610633577f4e487b7100000000000000000000000000000000000000000000000000000000600052603260045260246000fd5b602002602001018190525080604051806060016040529081600082015481526020016001820160009054906101000a900473ffffffffffffffffffffffffffffffffffffffff1673ffffffffffffffffffffffffffffffffffffffff1673ffffffffffffffffffffffffffffffffffffffff1681526020016002820154815250508588815181106106ed577f4e487b7100000000000000000000000000000000000000000000000000000000600052603260045260246000fd5b6020026020010181905250600187610705919061458a565b96505050505b808061071690614727565b9150506103bc565b5081819650965050505050509091565b7f2a55205a0000000000000000000000000000000000000000000000000000000081565b60606000610760600161382e565b905060008060005b83811015610809573373ffffffffffffffffffffffffffffffffffffffff1660036000600184610798919061458a565b815260200190815260200160002060050160009054906101000a900473ffffffffffffffffffffffffffffffffffffffff1673ffffffffffffffffffffffffffffffffffffffff1614156107f6576001836107f3919061458a565b92505b808061080190614727565b915050610768565b5060008267ffffffffffffffff81111561084c577f4e487b7100000000000000000000000000000000000000000000000000000000600052604160045260246000fd5b60405190808252806020026020018201604052801561088557816020015b6108726139ef565b81526020019060019003908161086a5790505b50905060005b84811015610b5d573373ffffffffffffffffffffffffffffffffffffffff16600360006001846108bb919061458a565b815260200190815260200160002060050160009054906101000a900473ffffffffffffffffffffffffffffffffffffffff1673ffffffffffffffffffffffffffffffffffffffff161415610b4a576000600182610918919061458a565b905060006003600083815260200190815260200160002090508060405180610140016040529081600082015481526020016001820160009054906101000a900473ffffffffffffffffffffffffffffffffffffffff1673ffffffffffffffffffffffffffffffffffffffff1673ffffffffffffffffffffffffffffffffffffffff168152602001600282015481526020016003820160009054906101000a900473ffffffffffffffffffffffffffffffffffffffff1673ffffffffffffffffffffffffffffffffffffffff1673ffffffffffffffffffffffffffffffffffffffff1681526020016004820160009054906101000a900473ffffffffffffffffffffffffffffffffffffffff1673ffffffffffffffffffffffffffffffffffffffff1673ffffffffffffffffffffffffffffffffffffffff1681526020016005820160009054906101000a900473ffffffffffffffffffffffffffffffffffffffff1673ffffffffffffffffffffffffffffffffffffffff1673ffffffffffffffffffffffffffffffffffffffff16815260200160068201548152602001600782015481526020016008820160009054906101000a900460ff161515151581526020016008820160019054906101000a900460ff161515151581525050848681518110610b2d577f4e487b7100000000000000000000000000000000000000000000000000000000600052603260045260246000fd5b6020026020010181905250600185610b45919061458a565b945050505b8080610b5590614727565b91505061088b565b508094505050505090565b60026000541415610bae576040517f08c379a0000000000000000000000000000000000000000000000000000000008152600401610ba59061442d565b60405180910390fd5b6002600081905550600060036000838152602001908152602001600020905060006004600084815260200190815260200160002090508160080160019054906101000a900460ff1615610c36576040517f08c379a0000000000000000000000000000000000000000000000000000000008152600401610c2d906143cd565b60405180910390fd5b8160080160009054906101000a900460ff16610c87576040517f08c379a0000000000000000000000000000000000000000000000000000000008152600401610c7e906142ad565b60405180910390fd5b42816002015410610ccd576040517f08c379a0000000000000000000000000000000000000000000000000000000008152600401610cc4906143ed565b60405180910390fd5b8060010160009054906101000a900473ffffffffffffffffffffffffffffffffffffffff1673ffffffffffffffffffffffffffffffffffffffff163373ffffffffffffffffffffffffffffffffffffffff1614610d5f576040517f08c379a0000000000000000000000000000000000000000000000000000000008152600401610d569061432d565b60405180910390fd5b8160040160009054906101000a900473ffffffffffffffffffffffffffffffffffffffff1673ffffffffffffffffffffffffffffffffffffffff168260030160009054906101000a900473ffffffffffffffffffffffffffffffffffffffff1673ffffffffffffffffffffffffffffffffffffffff161415610e4b578160010160009054906101000a900473ffffffffffffffffffffffffffffffffffffffff1673ffffffffffffffffffffffffffffffffffffffff166108fc349081150290604051600060405180830381858888f19350505050158015610e45573d6000803e3d6000fd5b50610f35565b8160040160009054906101000a900473ffffffffffffffffffffffffffffffffffffffff1673ffffffffffffffffffffffffffffffffffffffff166108fc83600701549081150290604051600060405180830381858888f19350505050158015610eb9573d6000803e3d6000fd5b508160040160009054906101000a900473ffffffffffffffffffffffffffffffffffffffff1673ffffffffffffffffffffffffffffffffffffffff166108fc836007015434610f08919061463a565b9081150290604051600060405180830381858888f19350505050158015610f33573d6000803e3d6000fd5b505b8373ffffffffffffffffffffffffffffffffffffffff166323b872dd303385600201546040518463ffffffff1660e01b8152600401610f76939291906141e2565b600060405180830381600087803b158015610f9057600080fd5b505af1158015610fa4573d6000803e3d6000fd5b50505050338260050160006101000a81548173ffffffffffffffffffffffffffffffffffffffff021916908373ffffffffffffffffffffffffffffffffffffffff16021790555060018260080160016101000a81548160ff021916908315150217905550611012600261383c565b8160050160009054906101000a900473ffffffffffffffffffffffffffffffffffffffff1673ffffffffffffffffffffffffffffffffffffffff168260040160009054906101000a900473ffffffffffffffffffffffffffffffffffffffff1673ffffffffffffffffffffffffffffffffffffffff168573ffffffffffffffffffffffffffffffffffffffff167f947311168d2a40fc244919c4730e9cdd04e55a2c2db85589585acb09f89efe1e866040516110ce91906144ad565b60405180910390a4505060016000819055505050565b6002600054141561112a576040517f08c379a00000000000000000000000000000000000000000000000000000000081526004016111219061442d565b60405180910390fd5b600260008190555060008111611175576040517f08c379a000000000000000000000000000000000000000000000000000000000815260040161116c9061446d565b60405180910390fd5b61119f837f80ac58cd00000000000000000000000000000000000000000000000000000000613852565b6111de576040517f08c379a00000000000000000000000000000000000000000000000000000000081526004016111d5906142cd565b60405180910390fd5b3373ffffffffffffffffffffffffffffffffffffffff168373ffffffffffffffffffffffffffffffffffffffff16636352211e846040518263ffffffff1660e01b815260040161122e91906144ad565b60206040518083038186803b15801561124657600080fd5b505afa15801561125a573d6000803e3d6000fd5b505050506040513d601f19601f8201168201806040525081019061127e9190613b3e565b73ffffffffffffffffffffffffffffffffffffffff16146112d4576040517f08c379a00000000000000000000000000000000000000000000000000000000081526004016112cb9061430d565b60405180910390fd5b6112de600161383c565b60006112ea600161382e565b9050611316847f2a55205a00000000000000000000000000000000000000000000000000000000613852565b156115f4576000808573ffffffffffffffffffffffffffffffffffffffff16632a55205a86866040518363ffffffff1660e01b81526004016113599291906144c8565b604080518083038186803b15801561137057600080fd5b505afa158015611384573d6000803e3d6000fd5b505050506040513d601f19601f820116820180604052508101906113a89190613ba3565b915091506040518061014001604052808481526020018773ffffffffffffffffffffffffffffffffffffffff1681526020018681526020018373ffffffffffffffffffffffffffffffffffffffff1681526020013373ffffffffffffffffffffffffffffffffffffffff168152602001600073ffffffffffffffffffffffffffffffffffffffff16815260200185815260200182815260200160001515815260200160001515815250600360008581526020019081526020016000206000820151816000015560208201518160010160006101000a81548173ffffffffffffffffffffffffffffffffffffffff021916908373ffffffffffffffffffffffffffffffffffffffff1602179055506040820151816002015560608201518160030160006101000a81548173ffffffffffffffffffffffffffffffffffffffff021916908373ffffffffffffffffffffffffffffffffffffffff16021790555060808201518160040160006101000a81548173ffffffffffffffffffffffffffffffffffffffff021916908373ffffffffffffffffffffffffffffffffffffffff16021790555060a08201518160050160006101000a81548173ffffffffffffffffffffffffffffffffffffffff021916908373ffffffffffffffffffffffffffffffffffffffff16021790555060c0820151816006015560e082015181600701556101008201518160080160006101000a81548160ff0219169083151502179055506101208201518160080160016101000a81548160ff021916908315150217905550905050505061183f565b600033905060006040518061014001604052808481526020018773ffffffffffffffffffffffffffffffffffffffff1681526020018681526020018373ffffffffffffffffffffffffffffffffffffffff1681526020013373ffffffffffffffffffffffffffffffffffffffff168152602001600073ffffffffffffffffffffffffffffffffffffffff16815260200185815260200182815260200160001515815260200160001515815250600360008581526020019081526020016000206000820151816000015560208201518160010160006101000a81548173ffffffffffffffffffffffffffffffffffffffff021916908373ffffffffffffffffffffffffffffffffffffffff1602179055506040820151816002015560608201518160030160006101000a81548173ffffffffffffffffffffffffffffffffffffffff021916908373ffffffffffffffffffffffffffffffffffffffff16021790555060808201518160040160006101000a81548173ffffffffffffffffffffffffffffffffffffffff021916908373ffffffffffffffffffffffffffffffffffffffff16021790555060a08201518160050160006101000a81548173ffffffffffffffffffffffffffffffffffffffff021916908373ffffffffffffffffffffffffffffffffffffffff16021790555060c0820151816006015560e082015181600701556101008201518160080160006101000a81548160ff0219169083151502179055506101208201518160080160016101000a81548160ff02191690831515021790555090505050505b8373ffffffffffffffffffffffffffffffffffffffff166323b872dd3330866040518463ffffffff1660e01b815260040161187c939291906141e2565b600060405180830381600087803b15801561189657600080fd5b505af11580156118aa573d6000803e3d6000fd5b50505050828473ffffffffffffffffffffffffffffffffffffffff16827f2ad024d53a0dc50c130967f8d4941927ee087ea31394cebb2b9599d3706c9c00336000876040516118fb939291906141e2565b60405180910390a4506001600081905550505050565b60026000541415611957576040517f08c379a000000000000000000000000000000000000000000000000000000000815260040161194e9061442d565b60405180910390fd5b60026000819055506003600082815260200190815260200160002060080160019054906101000a900460ff16156119c3576040517f08c379a00000000000000000000000000000000000000000000000000000000081526004016119ba9061428d565b60405180910390fd5b3373ffffffffffffffffffffffffffffffffffffffff166003600083815260200190815260200160002060040160009054906101000a900473ffffffffffffffffffffffffffffffffffffffff1673ffffffffffffffffffffffffffffffffffffffff1614611a67576040517f08c379a0000000000000000000000000000000000000000000000000000000008152600401611a5e9061434d565b60405180910390fd5b6003600082815260200190815260200160002060080160009054906101000a900460ff1615611b73576000600460008381526020019081526020016000209050600081600001541115611b24578060010160009054906101000a900473ffffffffffffffffffffffffffffffffffffffff1673ffffffffffffffffffffffffffffffffffffffff166108fc82600001549081150290604051600060405180830381858888f19350505050158015611b22573d6000803e3d6000fd5b505b600460008381526020019081526020016000206000808201600090556001820160006101000a81549073ffffffffffffffffffffffffffffffffffffffff021916905560028201600090555050505b6003600082815260200190815260200160002060010160009054906101000a900473ffffffffffffffffffffffffffffffffffffffff1673ffffffffffffffffffffffffffffffffffffffff166323b872dd303360036000868152602001908152602001600020600201546040518463ffffffff1660e01b8152600401611bfc939291906141e2565b600060405180830381600087803b158015611c1657600080fd5b505af1158015611c2a573d6000803e3d6000fd5b50505050600360008281526020019081526020016000206000808201600090556001820160006101000a81549073ffffffffffffffffffffffffffffffffffffffff021916905560028201600090556003820160006101000a81549073ffffffffffffffffffffffffffffffffffffffff02191690556004820160006101000a81549073ffffffffffffffffffffffffffffffffffffffff02191690556005820160006101000a81549073ffffffffffffffffffffffffffffffffffffffff0219169055600682016000905560078201600090556008820160006101000a81549060ff02191690556008820160016101000a81549060ff0219169055505060016003600083815260200190815260200160002060080160016101000a81548160ff021916908315150217905550611d61600261383c565b7f1cda23a20f33fe41e032453215b343b1a71ca2d5d923673971254f6c7338948081604051611d9091906144ad565b60405180910390a1600160008190555050565b6060806000611db2600161382e565b905060008060005b83811015611e5b573373ffffffffffffffffffffffffffffffffffffffff1660046000600184611dea919061458a565b815260200190815260200160002060010160009054906101000a900473ffffffffffffffffffffffffffffffffffffffff1673ffffffffffffffffffffffffffffffffffffffff161415611e4857600183611e45919061458a565b92505b8080611e5390614727565b915050611dba565b5060008267ffffffffffffffff811115611e9e577f4e487b7100000000000000000000000000000000000000000000000000000000600052604160045260246000fd5b604051908082528060200260200182016040528015611ed757816020015b611ec46139ef565b815260200190600190039081611ebc5790505b50905060008367ffffffffffffffff811115611f1c577f4e487b7100000000000000000000000000000000000000000000000000000000600052604160045260246000fd5b604051908082528060200260200182016040528015611f5557816020015b611f42613a9e565b815260200190600190039081611f3a5790505b50905060005b858110156122ff573373ffffffffffffffffffffffffffffffffffffffff1660036000600184611f8b919061458a565b815260200190815260200160002060050160009054906101000a900473ffffffffffffffffffffffffffffffffffffffff1673ffffffffffffffffffffffffffffffffffffffff1614156122ec576000600182611fe8919061458a565b9050600060036000838152602001908152602001600020905060006004600084815260200190815260200160002090508160405180610140016040529081600082015481526020016001820160009054906101000a900473ffffffffffffffffffffffffffffffffffffffff1673ffffffffffffffffffffffffffffffffffffffff1673ffffffffffffffffffffffffffffffffffffffff168152602001600282015481526020016003820160009054906101000a900473ffffffffffffffffffffffffffffffffffffffff1673ffffffffffffffffffffffffffffffffffffffff1673ffffffffffffffffffffffffffffffffffffffff1681526020016004820160009054906101000a900473ffffffffffffffffffffffffffffffffffffffff1673ffffffffffffffffffffffffffffffffffffffff1673ffffffffffffffffffffffffffffffffffffffff1681526020016005820160009054906101000a900473ffffffffffffffffffffffffffffffffffffffff1673ffffffffffffffffffffffffffffffffffffffff1673ffffffffffffffffffffffffffffffffffffffff16815260200160068201548152602001600782015481526020016008820160009054906101000a900460ff161515151581526020016008820160019054906101000a900460ff161515151581525050868881518110612214577f4e487b7100000000000000000000000000000000000000000000000000000000600052603260045260246000fd5b602002602001018190525080604051806060016040529081600082015481526020016001820160009054906101000a900473ffffffffffffffffffffffffffffffffffffffff1673ffffffffffffffffffffffffffffffffffffffff1673ffffffffffffffffffffffffffffffffffffffff1681526020016002820154815250508588815181106122ce577f4e487b7100000000000000000000000000000000000000000000000000000000600052603260045260246000fd5b60200260200101819052506001876122e6919061458a565b96505050505b80806122f790614727565b915050611f5b565b5081819650965050505050509091565b60026000541415612355576040517f08c379a000000000000000000000000000000000000000000000000000000000815260040161234c9061442d565b60405180910390fd5b6002600081905550600060036000838152602001908152602001600020905060006004600084815260200190815260200160002090508160080160019054906101000a900460ff16156123dd576040517f08c379a00000000000000000000000000000000000000000000000000000000081526004016123d4906143cd565b60405180910390fd5b8160080160009054906101000a900460ff1661242e576040517f08c379a0000000000000000000000000000000000000000000000000000000008152600401612425906142ad565b60405180910390fd5b42816002015411612474576040517f08c379a000000000000000000000000000000000000000000000000000000000815260040161246b906142ed565b60405180910390fd5b816006015434116124ba576040517f08c379a00000000000000000000000000000000000000000000000000000000081526004016124b19061444d565b60405180910390fd5b80600001543411612500576040517f08c379a00000000000000000000000000000000000000000000000000000000081526004016124f7906143ad565b60405180910390fd5b8060010160009054906101000a900473ffffffffffffffffffffffffffffffffffffffff1673ffffffffffffffffffffffffffffffffffffffff166108fc82600001549081150290604051600060405180830381858888f1935050505015801561256e573d6000803e3d6000fd5b50338160010160006101000a81548173ffffffffffffffffffffffffffffffffffffffff021916908373ffffffffffffffffffffffffffffffffffffffff1602179055503481600001819055503373ffffffffffffffffffffffffffffffffffffffff16837f15b8c46b3adaaaed6a15b987e48c55b5004e791f99bd3864378d38d4f355008f3460405161260291906144ad565b60405180910390a35050600160008190555050565b6002600054141561265d576040517f08c379a00000000000000000000000000000000000000000000000000000000081526004016126549061442d565b60405180910390fd5b6002600081905550600082116126a8576040517f08c379a000000000000000000000000000000000000000000000000000000000815260040161269f9061446d565b60405180910390fd5b600081116126eb576040517f08c379a00000000000000000000000000000000000000000000000000000000081526004016126e29061438d565b60405180910390fd5b612715847f80ac58cd00000000000000000000000000000000000000000000000000000000613852565b612754576040517f08c379a000000000000000000000000000000000000000000000000000000000815260040161274b906142cd565b60405180910390fd5b3373ffffffffffffffffffffffffffffffffffffffff168473ffffffffffffffffffffffffffffffffffffffff16636352211e856040518263ffffffff1660e01b81526004016127a491906144ad565b60206040518083038186803b1580156127bc57600080fd5b505afa1580156127d0573d6000803e3d6000fd5b505050506040513d601f19601f820116820180604052508101906127f49190613b3e565b73ffffffffffffffffffffffffffffffffffffffff161461284a576040517f08c379a00000000000000000000000000000000000000000000000000000000081526004016128419061430d565b60405180910390fd5b612854600161383c565b6000612860600161382e565b905061288c857f2a55205a00000000000000000000000000000000000000000000000000000000613852565b15612b6a576000808673ffffffffffffffffffffffffffffffffffffffff16632a55205a87876040518363ffffffff1660e01b81526004016128cf9291906144c8565b604080518083038186803b1580156128e657600080fd5b505afa1580156128fa573d6000803e3d6000fd5b505050506040513d601f19601f8201168201806040525081019061291e9190613ba3565b915091506040518061014001604052808481526020018873ffffffffffffffffffffffffffffffffffffffff1681526020018781526020018373ffffffffffffffffffffffffffffffffffffffff1681526020013373ffffffffffffffffffffffffffffffffffffffff168152602001600073ffffffffffffffffffffffffffffffffffffffff16815260200186815260200182815260200160011515815260200160001515815250600360008581526020019081526020016000206000820151816000015560208201518160010160006101000a81548173ffffffffffffffffffffffffffffffffffffffff021916908373ffffffffffffffffffffffffffffffffffffffff1602179055506040820151816002015560608201518160030160006101000a81548173ffffffffffffffffffffffffffffffffffffffff021916908373ffffffffffffffffffffffffffffffffffffffff16021790555060808201518160040160006101000a81548173ffffffffffffffffffffffffffffffffffffffff021916908373ffffffffffffffffffffffffffffffffffffffff16021790555060a08201518160050160006101000a81548173ffffffffffffffffffffffffffffffffffffffff021916908373ffffffffffffffffffffffffffffffffffffffff16021790555060c0820151816006015560e082015181600701556101008201518160080160006101000a81548160ff0219169083151502179055506101208201518160080160016101000a81548160ff0219169083151502179055509050505050612db5565b600033905060006040518061014001604052808481526020018873ffffffffffffffffffffffffffffffffffffffff1681526020018781526020018373ffffffffffffffffffffffffffffffffffffffff1681526020013373ffffffffffffffffffffffffffffffffffffffff168152602001600073ffffffffffffffffffffffffffffffffffffffff16815260200186815260200182815260200160011515815260200160001515815250600360008581526020019081526020016000206000820151816000015560208201518160010160006101000a81548173ffffffffffffffffffffffffffffffffffffffff021916908373ffffffffffffffffffffffffffffffffffffffff1602179055506040820151816002015560608201518160030160006101000a81548173ffffffffffffffffffffffffffffffffffffffff021916908373ffffffffffffffffffffffffffffffffffffffff16021790555060808201518160040160006101000a81548173ffffffffffffffffffffffffffffffffffffffff021916908373ffffffffffffffffffffffffffffffffffffffff16021790555060a08201518160050160006101000a81548173ffffffffffffffffffffffffffffffffffffffff021916908373ffffffffffffffffffffffffffffffffffffffff16021790555060c0820151816006015560e082015181600701556101008201518160080160006101000a81548160ff0219169083151502179055506101208201518160080160016101000a81548160ff02191690831515021790555090505050505b8473ffffffffffffffffffffffffffffffffffffffff166323b872dd3330876040518463ffffffff1660e01b8152600401612df2939291906141e2565b600060405180830381600087803b158015612e0c57600080fd5b505af1158015612e20573d6000803e3d6000fd5b50505050604051806060016040528060008152602001600073ffffffffffffffffffffffffffffffffffffffff1681526020016201518084612e6291906145e0565b42612e6d919061458a565b815250600460008381526020019081526020016000206000820151816000015560208201518160010160006101000a81548173ffffffffffffffffffffffffffffffffffffffff021916908373ffffffffffffffffffffffffffffffffffffffff16021790555060408201518160020155905050838573ffffffffffffffffffffffffffffffffffffffff16827f2ad024d53a0dc50c130967f8d4941927ee087ea31394cebb2b9599d3706c9c0033600088604051612f2e939291906141e2565b60405180910390a450600160008190555050505050565b60026000541415612f8b576040517f08c379a0000000000000000000000000000000000000000000000000000000008152600401612f829061442d565b60405180910390fd5b600260008190555060006003600083815260200190815260200160002090508060080160009054906101000a900460ff1615612ffc576040517f08c379a0000000000000000000000000000000000000000000000000000000008152600401612ff39061440d565b60405180910390fd5b80600601543414613042576040517f08c379a00000000000000000000000000000000000000000000000000000000081526004016130399061436d565b60405180910390fd5b8060080160019054906101000a900460ff1615613094576040517f08c379a000000000000000000000000000000000000000000000000000000000815260040161308b9061448d565b60405180910390fd5b8060040160009054906101000a900473ffffffffffffffffffffffffffffffffffffffff1673ffffffffffffffffffffffffffffffffffffffff168160030160009054906101000a900473ffffffffffffffffffffffffffffffffffffffff1673ffffffffffffffffffffffffffffffffffffffff161415613180578060010160009054906101000a900473ffffffffffffffffffffffffffffffffffffffff1673ffffffffffffffffffffffffffffffffffffffff166108fc349081150290604051600060405180830381858888f1935050505015801561317a573d6000803e3d6000fd5b5061326a565b8060040160009054906101000a900473ffffffffffffffffffffffffffffffffffffffff1673ffffffffffffffffffffffffffffffffffffffff166108fc82600701549081150290604051600060405180830381858888f193505050501580156131ee573d6000803e3d6000fd5b508060040160009054906101000a900473ffffffffffffffffffffffffffffffffffffffff1673ffffffffffffffffffffffffffffffffffffffff166108fc82600701543461323d919061463a565b9081150290604051600060405180830381858888f19350505050158015613268573d6000803e3d6000fd5b505b8273ffffffffffffffffffffffffffffffffffffffff166323b872dd303384600201546040518463ffffffff1660e01b81526004016132ab939291906141e2565b600060405180830381600087803b1580156132c557600080fd5b505af11580156132d9573d6000803e3d6000fd5b50505050338160050160006101000a81548173ffffffffffffffffffffffffffffffffffffffff021916908373ffffffffffffffffffffffffffffffffffffffff16021790555060018160080160016101000a81548160ff021916908315150217905550613347600261383c565b8060050160009054906101000a900473ffffffffffffffffffffffffffffffffffffffff1673ffffffffffffffffffffffffffffffffffffffff168160040160009054906101000a900473ffffffffffffffffffffffffffffffffffffffff1673ffffffffffffffffffffffffffffffffffffffff168473ffffffffffffffffffffffffffffffffffffffff167f947311168d2a40fc244919c4730e9cdd04e55a2c2db85589585acb09f89efe1e8560405161340391906144ad565b60405180910390a45060016000819055505050565b60606000613426600161382e565b905060008060005b838110156134cf573373ffffffffffffffffffffffffffffffffffffffff166003600060018461345e919061458a565b815260200190815260200160002060040160009054906101000a900473ffffffffffffffffffffffffffffffffffffffff1673ffffffffffffffffffffffffffffffffffffffff1614156134bc576001836134b9919061458a565b92505b80806134c790614727565b91505061342e565b5060008267ffffffffffffffff811115613512577f4e487b7100000000000000000000000000000000000000000000000000000000600052604160045260246000fd5b60405190808252806020026020018201604052801561354b57816020015b6135386139ef565b8152602001906001900390816135305790505b50905060005b84811015613823573373ffffffffffffffffffffffffffffffffffffffff1660036000600184613581919061458a565b815260200190815260200160002060040160009054906101000a900473ffffffffffffffffffffffffffffffffffffffff1673ffffffffffffffffffffffffffffffffffffffff1614156138105760006001826135de919061458a565b905060006003600083815260200190815260200160002090508060405180610140016040529081600082015481526020016001820160009054906101000a900473ffffffffffffffffffffffffffffffffffffffff1673ffffffffffffffffffffffffffffffffffffffff1673ffffffffffffffffffffffffffffffffffffffff168152602001600282015481526020016003820160009054906101000a900473ffffffffffffffffffffffffffffffffffffffff1673ffffffffffffffffffffffffffffffffffffffff1673ffffffffffffffffffffffffffffffffffffffff1681526020016004820160009054906101000a900473ffffffffffffffffffffffffffffffffffffffff1673ffffffffffffffffffffffffffffffffffffffff1673ffffffffffffffffffffffffffffffffffffffff1681526020016005820160009054906101000a900473ffffffffffffffffffffffffffffffffffffffff1673ffffffffffffffffffffffffffffffffffffffff1673ffffffffffffffffffffffffffffffffffffffff16815260200160068201548152602001600782015481526020016008820160009054906101000a900460ff161515151581526020016008820160019054906101000a900460ff1615151515815250508486815181106137f3577f4e487b7100000000000000000000000000000000000000000000000000000000600052603260045260246000fd5b602002602001018190525060018561380b919061458a565b945050505b808061381b90614727565b915050613551565b508094505050505090565b600081600001549050919050565b6001816000016000828254019250508190555050565b600061385d83613877565b801561386f575061386e83836138c4565b5b905092915050565b60006138a3827f01ffc9a7000000000000000000000000000000000000000000000000000000006138c4565b80156138bd57506138bb8263ffffffff60e01b6138c4565b155b9050919050565b6000806301ffc9a760e01b836040516024016138e09190614272565b604051602081830303815290604052907bffffffffffffffffffffffffffffffffffffffffffffffffffffffff19166020820180517bffffffffffffffffffffffffffffffffffffffffffffffffffffffff838183161783525050505090506000808573ffffffffffffffffffffffffffffffffffffffff166175308460405161396a91906141cb565b6000604051808303818686fa925050503d80600081146139a6576040519150601f19603f3d011682016040523d82523d6000602084013e6139ab565b606091505b50915091506020815110156139c657600093505050506139e9565b8180156139e35750808060200190518101906139e29190613c91565b5b93505050505b92915050565b60405180610140016040528060008152602001600073ffffffffffffffffffffffffffffffffffffffff16815260200160008152602001600073ffffffffffffffffffffffffffffffffffffffff168152602001600073ffffffffffffffffffffffffffffffffffffffff168152602001600073ffffffffffffffffffffffffffffffffffffffff16815260200160008152602001600081526020016000151581526020016000151581525090565b604051806060016040528060008152602001600073ffffffffffffffffffffffffffffffffffffffff168152602001600081525090565b600081359050613ae481614aca565b92915050565b600081519050613af981614aca565b92915050565b600081519050613b0e81614ae1565b92915050565b600081359050613b2381614af8565b92915050565b600081519050613b3881614af8565b92915050565b600060208284031215613b5057600080fd5b6000613b5e84828501613aea565b91505092915050565b60008060408385031215613b7a57600080fd5b6000613b8885828601613ad5565b9250506020613b9985828601613b14565b9150509250929050565b60008060408385031215613bb657600080fd5b6000613bc485828601613aea565b9250506020613bd585828601613b29565b9150509250929050565b600080600060608486031215613bf457600080fd5b6000613c0286828701613ad5565b9350506020613c1386828701613b14565b9250506040613c2486828701613b14565b9150509250925092565b60008060008060808587031215613c4457600080fd5b6000613c5287828801613ad5565b9450506020613c6387828801613b14565b9350506040613c7487828801613b14565b9250506060613c8587828801613b14565b91505092959194509250565b600060208284031215613ca357600080fd5b6000613cb184828501613aff565b91505092915050565b600060208284031215613ccc57600080fd5b6000613cda84828501613b14565b91505092915050565b6000613cef838361409f565b60608301905092915050565b6000613d0783836140e1565b6101408301905092915050565b613d1d81614680565b82525050565b613d2c8161466e565b82525050565b613d3b8161466e565b82525050565b6000613d4c82614511565b613d56818561454c565b9350613d61836144f1565b8060005b83811015613d92578151613d798882613ce3565b9750613d8483614532565b925050600181019050613d65565b5085935050505092915050565b6000613daa8261451c565b613db4818561455d565b9350613dbf83614501565b8060005b83811015613df0578151613dd78882613cfb565b9750613de28361453f565b925050600181019050613dc3565b5085935050505092915050565b613e0681614692565b82525050565b613e158161469e565b82525050565b6000613e2682614527565b613e30818561456e565b9350613e408185602086016146f4565b80840191505092915050565b6000613e59601c83614579565b9150613e648261479f565b602082019050919050565b6000613e7c601783614579565b9150613e87826147c8565b602082019050919050565b6000613e9f601b83614579565b9150613eaa826147f1565b602082019050919050565b6000613ec2601983614579565b9150613ecd8261481a565b602082019050919050565b6000613ee5601d83614579565b9150613ef082614843565b602082019050919050565b6000613f08602083614579565b9150613f138261486c565b602082019050919050565b6000613f2b601483614579565b9150613f3682614895565b602082019050919050565b6000613f4e604083614579565b9150613f59826148be565b604082019050919050565b6000613f71601c83614579565b9150613f7c8261490d565b602082019050919050565b6000613f94602d83614579565b9150613f9f82614936565b604082019050919050565b6000613fb7601a83614579565b9150613fc282614985565b602082019050919050565b6000613fda601983614579565b9150613fe5826149ae565b602082019050919050565b6000613ffd601783614579565b9150614008826149d7565b602082019050919050565b6000614020601f83614579565b915061402b82614a00565b602082019050919050565b6000614043602583614579565b915061404e82614a29565b604082019050919050565b6000614066601c83614579565b915061407182614a78565b602082019050919050565b6000614089601183614579565b915061409482614aa1565b602082019050919050565b6060820160008201516140b560008501826141ad565b5060208201516140c86020850182613d23565b5060408201516140db60408501826141ad565b50505050565b610140820160008201516140f860008501826141ad565b50602082015161410b6020850182613d23565b50604082015161411e60408501826141ad565b5060608201516141316060850182613d14565b5060808201516141446080850182613d14565b5060a082015161415760a0850182613d14565b5060c082015161416a60c08501826141ad565b5060e082015161417d60e08501826141ad565b50610100820151614192610100850182613dfd565b506101208201516141a7610120850182613dfd565b50505050565b6141b6816146ea565b82525050565b6141c5816146ea565b82525050565b60006141d78284613e1b565b915081905092915050565b60006060820190506141f76000830186613d32565b6142046020830185613d32565b61421160408301846141bc565b949350505050565b600060208201905081810360008301526142338184613d9f565b905092915050565b600060408201905081810360008301526142558185613d9f565b905081810360208301526142698184613d41565b90509392505050565b60006020820190506142876000830184613e0c565b92915050565b600060208201905081810360008301526142a681613e4c565b9050919050565b600060208201905081810360008301526142c681613e6f565b9050919050565b600060208201905081810360008301526142e681613e92565b9050919050565b6000602082019050818103600083015261430681613eb5565b9050919050565b6000602082019050818103600083015261432681613ed8565b9050919050565b6000602082019050818103600083015261434681613efb565b9050919050565b6000602082019050818103600083015261436681613f1e565b9050919050565b6000602082019050818103600083015261438681613f41565b9050919050565b600060208201905081810360008301526143a681613f64565b9050919050565b600060208201905081810360008301526143c681613f87565b9050919050565b600060208201905081810360008301526143e681613faa565b9050919050565b6000602082019050818103600083015261440681613fcd565b9050919050565b6000602082019050818103600083015261442681613ff0565b9050919050565b6000602082019050818103600083015261444681614013565b9050919050565b6000602082019050818103600083015261446681614036565b9050919050565b6000602082019050818103600083015261448681614059565b9050919050565b600060208201905081810360008301526144a68161407c565b9050919050565b60006020820190506144c260008301846141bc565b92915050565b60006040820190506144dd60008301856141bc565b6144ea60208301846141bc565b9392505050565b6000819050602082019050919050565b6000819050602082019050919050565b600081519050919050565b600081519050919050565b600081519050919050565b6000602082019050919050565b6000602082019050919050565b600082825260208201905092915050565b600082825260208201905092915050565b600081905092915050565b600082825260208201905092915050565b6000614595826146ea565b91506145a0836146ea565b9250827fffffffffffffffffffffffffffffffffffffffffffffffffffffffffffffffff038211156145d5576145d4614770565b5b828201905092915050565b60006145eb826146ea565b91506145f6836146ea565b9250817fffffffffffffffffffffffffffffffffffffffffffffffffffffffffffffffff048311821515161561462f5761462e614770565b5b828202905092915050565b6000614645826146ea565b9150614650836146ea565b92508282101561466357614662614770565b5b828203905092915050565b6000614679826146ca565b9050919050565b600061468b826146ca565b9050919050565b60008115159050919050565b60007fffffffff0000000000000000000000000000000000000000000000000000000082169050919050565b600073ffffffffffffffffffffffffffffffffffffffff82169050919050565b6000819050919050565b60005b838110156147125780820151818401526020810190506146f7565b83811115614721576000848401525b50505050565b6000614732826146ea565b91507fffffffffffffffffffffffffffffffffffffffffffffffffffffffffffffffff82141561476557614764614770565b5b600182019050919050565b7f4e487b7100000000000000000000000000000000000000000000000000000000600052601160045260246000fd5b7f536f6c64206974656d732063616e277420626520756e6c697374656400000000600082015250565b7f4974656d206973206e6f7420666f722061756374696f6e000000000000000000600082015250565b7f436f6e7472616374206e6565647320746f206265204552433732310000000000600082015250565b7f41756374696f6e2068617320616c726561647920656e64656400000000000000600082015250565b7f4f6e6c79206f776e65722063616e20637265617465206c697374696e67000000600082015250565b7f53656e646572206973206e6f7420746865206869676865737420626964646572600082015250565b7f53656e646572206973206e6f74206c6973746572000000000000000000000000600082015250565b7f506c65617365207375626d6974207468652061736b696e67207072696365206960008201527f6e206f7264657220746f20636f6d706c65746520746865207075726368617365602082015250565b7f41756374696f6e2074696d652063616e27742062652030206461797300000000600082015250565b7f596f75206e65656420746f20706179206d6f7265207468616e2063757272656e60008201527f7420686967686573742062696400000000000000000000000000000000000000602082015250565b7f4974656d2068617320616c7265616479206265656e20736f6c64000000000000600082015250565b7f41756374696f6e20686173206e6f742079657420656e64656400000000000000600082015250565b7f54686973206974656d206973206f6e2061756374696f6e000000000000000000600082015250565b7f5265656e7472616e637947756172643a207265656e7472616e742063616c6c00600082015250565b7f596f75206e65656420746f20706179206d6f7265207468616e20666c6f6f722060008201527f7072696365000000000000000000000000000000000000000000000000000000602082015250565b7f5072696365206d757374206265206174206c6561737420312077656900000000600082015250565b7f4974656d20616c726561647920736f6c64000000000000000000000000000000600082015250565b614ad38161466e565b8114614ade57600080fd5b50565b614aea81614692565b8114614af557600080fd5b50565b614b01816146ea565b8114614b0c57600080fd5b5056fea2646970667358221220d3cafaa25a6d410eeddba009bbf8e871320cb4f2cf344224fd15ee6e61c094ae64736f6c63430008040033",
  "linkReferences": {},
  "deployedLinkReferences": {}
}